:100000000C94D6050C94FE050C94FE050C94FE058C
:100010000C94FE050C94FE050C94FE050C94FE0554
:100020000C94FE050C94FE050C94CC070C943E0831
:100030000C94FE050C94FE050C94FE050C94FE0534
:100040000C94FE050C94FE050C94FE050C94FE0524
:100050000C94FE050C94FE050C94FE050C94B31054
:100060000C94FE050C94FE050C94FE050C94FE0504
:100070000C94FE050C94FE050C94FE050C94FE05F4
:100080000C94FE050C94FE050C94FE050C94FE05E4
:100090000C94FE050C94FE050C94FE050C94FE05D4
:1000A0000C94FE050C94FE050C94FE0508080C0C3F
:1000B0000CF3F30C0C0C0C0C0CF3F30C0C0C0808EC
:1000C00000006A3D3DDA00000000DA3D3D6A0000B4
:1000D00008080000DA3F3F6A000000006A3F3FDA8C
:1000E000000008082010FA7E4ADE100020907A7E78
:1000F0004ADE100008080C0C0CF3F30C0C0C0C0C72
:100100000CF3F30C0C0C080800006A3D3DDA00000B
:100110000000DA3D3D6A000008080000DA3F3F6A4F
:10012000000000006A3F3FDA00000808000092FF6C
:10013000FF0200000000D27F3FE20000080800102C
:10014000DE4A7EFA10200010DE4A7E7A90200808EF
:10015000000002FFFF9200000000E23F7FD200009B
:10016000F0F89C8E8783878E9CF8F00000FEFF03DA
:1001700003030303070EFCF80000FEFF0303030361
:1001800003070EFCF80000FFFF0000000000000065
:10019000FFFF0000FEFF8383838383C7EE7C38006C
:1001A00000F8FC0E07030303070EFCF800003F7F76
:1001B000E0C08080C0E07F3FFFFF0101010101013D
:1001C00001FFFF0000FFFF0C0C0C0C1C3E77E3C18D
:1001D00000007FFFC0C0C0C0C0E0703F1F00001F14
:1001E0003F70E0C0C0C0E0703F1F00007FFFC1C192
:1001F000C1C1C1E3773E1C00001F3F70E0C0C0C01A
:10020000E0703F1F000000000001FFFF0100000040
:10021000D5F08D14A1C881CFD9F1AF2000000074B2
:100220006A426800000000F8A4A4F800000000067C
:1002300079490600000000000000000000000000F6
:1002400000000000000000000000000000000000AE
:10025000000000000000000380000000000000001B
:100260000000000000001F8180000381C00000002A
:100270000000000C000070E1800001C3800000005D
:100280000000000C00006061800001C380000000DD
:100290000000000C0000C031FC0001E78E38FDC7F3
:1002A000EE3C3C0C0000C031C60001E786187763C5
:1002B000BB18180C0000C031860001BD86186663AB
:1002C000330C300C0000C031860001BD8618666317
:1002D000330C300C0000C03186000199861866632B
:1002E0003306600C0000C0318600019986186663F1
:1002F0003306600000006061860001818618666335
:100300003303C000000070E1860181818638666396
:100310003303C00C00001F83CF0183C3C3FCF777F6
:10032000BB81800C00000000000300000000000002
:10033000000180000000000000000000000000003C
:1003400000030000000000000000000000000000AA
:10035000000300000000000000000000000000009A
:10036000000F8000000000000000000000000000FE
:10037000000000000000000000000000000000007D
:10038000000000000000000000000000000000006D
:10039000000000000000000000000000000000005D
:1003A000000000000000000000000000000000004D
:1003B0000000000000000000000000000008000035
:1003C000000000000000003E00000000001C0000D3
:1003D000001E0000000000DE0000000000360000EB
:1003E000002FE000000003FC0E00000000FF800072
:1003F000007FF800000000301F00000001224000D4
:1004000000221800000000307FC0000002222000FF
:100410000026380000000030FFF00000044110000A
:100420000010F00000000039FFFF40000841080004
:100430000003C0000000003FFFF9C00010808400EE
:10044000000780000000001FFFF8000020808300EC
:10045000000E00000000001FFFF00000FFFFFF8003
:10046000000E7000000000018040000101004040CB
:100470000006FC00000000010040000202004020D5
:100480000007E0000000000300C00004020020108C
:100490000003C00000000001004000080400200824
:1004A000000000000000000300C000100400100461
:1004B00000000000000000000000007FFFFFFFFFC1
:1004C000000000000000000000000080080008009C
:1004D0008000000000000000000001001000040087
:1004E0004000000000000000000003FFFFFFFFFFCE
:1004F000E00000000000000000000000000000001C
:1005000000030000000000000000000000000000E8
:10051000000780000000000000000000000000183C
:10052000300CC01E0001C380000078000000003CB9
:10053000781860060000E700FF80CC0CE006662417
:100540004810219E00006603C3E18606E00FFE3FCF
:10055000F810207F80007E0760018607E01BBA1F2D
:10056000F010200E6001FF8627C186076000000C96
:100570006078600E0001FF876EE7CF826000001F89
:10058000F0CC600E00007E03CC6000027F02043FCE
:10059000F884400E000066000EE000023107FE24E1
:1005A000488CC00E0000E70787C7FF803100003C81
:1005B00078C8C01B0001C381FF0000003F00001C81
:1005C0007079803100000000000000006000000031
:1005D000000180618000000000000003C0000000F6
:1005E0000001F80000000000000000000000000012
:1005F0000000E0000000000000000000000000001B
:1006000000000000000000000000000000000000EA
:1006100000000000000000000000000000000000DA
:1006200000000000000000000000000000000000CA
:10063000000000000000000000003E5B4F5B3E3EFB
:100640006B4F6B3E1C3E7C3E1C183C7E3C181C577E
:100650007D571C1C5E7F5E1C00183C1800FFE7C322
:10066000E7FF0018241800FFE7DBE7FF30483A06F1
:100670000E2629792926407F050507407F05253F5D
:100680005A3CE73C5A7F3E1C1C08081C1C3E7F1449
:10069000227F22145F5F005F5F06097F017F006693
:1006A00089956A606060606094A2FFA29408047EED
:1006B000040810207E201008082A1C08081C2A089C
:1006C000081E101010100C1E0C1E0C30383E383056
:1006D000060E3E0E06000000000000005F00000055
:1006E00007000700147F147F14242A7F2A12231383
:1006F00008646236495620500008070300001C2297
:1007000041000041221C002A1C7F1C2A08083E08C8
:1007100008008070300008080808080000606000C9
:1007200020100804023E5149453E00427F400072BD
:10073000494949462141494D331814127F10274534
:100740004545393C4A494931412111090736494952
:100750004936464949291E00001400000040340073
:100760000000081422411414141414004122140827
:1007700002015909063E415D594E7C1211127C7FDF
:10078000494949363E414141227F4141413E7F49ED
:100790004949417F090909013E414151737F0808D8
:1007A000087F00417F41002040413F017F08142223
:1007B000417F404040407F021C027F7F0408107F41
:1007C0003E4141413E7F090909063E4151215E7F7C
:1007D00009192946264949493203017F01033F404F
:1007E00040403F1F2040201F3F4038403F631408D7
:1007F000146303047804036159494D43007F414168
:10080000410204081020004141417F04020102041A
:100810004040404040000307080020545478407F87
:10082000284444383844444428384444287F3854C1
:1008300054541800087E090218A4A49C787F080468
:10084000047800447D40002040403D007F10284453
:100850000000417F40007C047804787C0804047820
:100860003844444438FC1824241818242418FC7CE8
:1008700008040408485454542404043F44243C40CD
:1008800040207C1C2040201C3C4030403C44281030
:1008900028444C9090907C4464544C440008364169
:1008A0000000007700000041360800020102040247
:1008B0003C2623263C1EA1A161123A4040207A38F2
:1008C0005454555921555579412154547841215555
:1008D00054784020545579400C1E527212395555A7
:1008E0005559395454545939555454580000457C7D
:1008F000410002457D420001457C40F0292429F059
:10090000F0282528F07C545545002054547C547C14
:100910000A097F4932494949323248484832324A05
:100920004848303A4141217A3A42402078009DA01F
:10093000A07D39444444393D4040403D3C24FF249F
:1009400024487E4943662B2FFC2F2BFF0929F620D4
:10095000C0887E090320545479410000447D413011
:1009600048484A32384040227A007A0A0A727D0D9D
:1009700019317D2629292F28262929292630484D55
:100980004020380808080808080808382F10C8ACA4
:10099000BA2F102834FA00007B000008142A142211
:1009A00022142A14089500220095AA005500AAAA2C
:1009B00055AA55AA000000FF00101010FF001414E3
:1009C00014FF001010FF00FF1010F010F0141414AA
:1009D000FC001414F700FF0000FF00FF1414F404DF
:1009E000FC141417101F10101F101F1414141F00D4
:1009F000101010F0000000001F101010101F101039
:100A00001010F010000000FF101010101010101047
:100A100010FF10000000FF140000FF00FF00001F87
:100A200010170000FC04F414141710171414F40425
:100A3000F40000FF00F714141414141414F700F752
:100A4000141414171410101F101F141414F414107D
:100A500010F010F000001F101F0000001F14000015
:100A600000FC140000F010F01010FF10FF1414141C
:100A7000FF141010101F00000000F010FFFFFFFF18
:100A8000FFF0F0F0F0F0FFFFFF0000000000FFFFBC
:100A90000F0F0F0F0F38444438447C2A2A3E147E2F
:100AA00002020606027E027E026355494163384413
:100AB000443C04407E201E2006027E020299A5E7E7
:100AC000A5991C2A492A1C4C7201724C304A4D4D82
:100AD000303048784830BC625A463D3E494949006A
:100AE0007E0101017E2A2A2A2A2A44445F44444086
:100AF000514A444040444A51400000FF0103E08015
:100B0000FF000008086B6B083612362436060F0902
:100B10000F06000018180000001010003040FF0100
:100B200001001F01011E00191D1712003C3C3C3C36
:100B30000000000000080B0002020201000904008E
:100B4000000102020000052400100105240101013A
:100B50000424020605240600010705810310004055
:100B600009040100020A000000070502024000001B
:100B7000070583024000000403090412010002EF8C
:100B800002014041233680000101020301417264E9
:100B900075696E6F204C4C430041726475696E6FCD
:100BA000204C656F6E6172646F003C1C11241FBE87
:100BB000CFEFDAE0DEBFCDBF12E0A0E0B1E0EAE2C5
:100BC000FBE302C005900D92AE3AB107D9F727E0DA
:100BD000AEEAB2E001C01D92AD34B207E1F715E014
:100BE000C6EDD5E004C02197FE010E94881DC53DD9
:100BF000D107C9F70E94FD100C94931D0C940000BE
:100C00004091C9025091CA022091C7023091C80296
:100C100042175307B4F49091E8009570E1F3909176
:100C2000E80092FD19C08093F1008091C902909173
:100C3000CA0201968F739927892B19F48EEF80933E
:100C4000E8008091C9029091CA0201969093CA026D
:100C50008093C90281E0089580E00895DF92EF92C9
:100C6000FF920F931F93CF93DF93D82E8A017B01BE
:100C7000E40EF51EEB01CE15DF0571F0D7FE03C0C3
:100C8000FE01849101C088810E9400062196811195
:100C9000F2CF8FEF9FEF01C0C801DF91CF911F917D
:100CA0000F91FF90EF90DF900895615030F0209108
:100CB000F100FC0120830196F8CF289884E6809308
:100CC0003A070895CF92DF92EF92FF920F931F930E
:100CD000CF93DF936C017A018B01C0E0D0E0CE1599
:100CE000DF0581F0D8016D918D01D601ED91FC9168
:100CF0000190F081E02DC6010995892B11F0219614
:100D0000EECF7E01C701DF91CF911F910F91FF9030
:100D1000EF90DF90CF900895CF93DF931F92CDB7E0
:100D2000DEB76983DC01ED91FC910280F381E02D57
:100D300041E050E0BE016F5F7F4F09950F90DF915A
:100D4000CF91089583E08093E9008091F200882399
:100D500019F08AE38093E8000895FC018485958565
:100D600097FD0BC09FB7F89482E08093E9008091D3
:100D7000F2009FBF90E0019608959FB7F89482E03B
:100D80008093E9008091F2009FBF90E0089508955C
:100D9000089580E090E008950E948E1D0F931F93A8
:100DA000CF93DF931F92CDB7DEB782E0898342E411
:100DB00050E065E37BE080E80E942E060E94401030
:100DC000DC0112960D911C9113970115110589F004
:100DD000D801ED91FC910280F381E02DBE016F5F9F
:100DE0007F4FC801099597FD04C0F8010085118562
:100DF000ECCF89810F90DF91CF911F910F910895D2
:100E00008F929F92AF92BF92CF92DF92EF92FF921A
:100E10000F931F93CF93DF936C017B018A01809125
:100E2000F501882309F45CC080913B07882309F40D
:100E300057C08091AE0280FF05C08091E0008260C3
:100E40008093E000E801B12C8AEFA82E93E0892E70
:100E50002AE3922E209711F4BB20D9F10E942F1083
:100E600081110AC0AA94AA20D9F161E070E080E063
:100E700090E00E947910EECF282F30E0C217D30700
:100E80000CF48C2F9FB7F8948092E9002091E80031
:100E900025FF1DC0282F30E0C21BD30BF701815066
:100EA00020F041914093F100FACFE20EF31EBB20F7
:100EB00019F09092E8000AC08091E80085FD07C013
:100EC0009092E800BB24B394209709F0B12C9FBF07
:100ED000C1CF5D9884E68093CC021016110644F0D1
:100EE00081E090E0F6019383828380E090E001C08E
:100EF000C801DF91CF911F910F91FF90EF90DF908C
:100F0000CF90BF90AF909F908F9008950E942F1028
:100F100090E008950F931F93CF93DF931F92CDB767
:100F2000DEB78C01FC018485958597FF0EC0CE014C
:100F300001960E940110019719F4898190E002C086
:100F40008FEF9FEFF80195878487F8018485958559
:100F50000F90DF91CF911F910F910895CF93DF9361
:100F60001F92CDB7DEB7FC018485958597FD05C03E
:100F70002FEF3FEF358724870BC0CE0101960E94EB
:100F80000110019719F4898190E002C08FEF9FEF63
:100F90000F90DF91CF9108951F920F920FB60F928D
:100FA00011248F939F938091E1009091E100937FB2
:100FB0009093E10083FF0FC01092E90091E09093BD
:100FC000EB001092EC0092E39093ED0010923B073F
:100FD00098E09093F00082FF20C093E09093E900A6
:100FE0009091F200992319F09AE39093E800909180
:100FF000CC02992339F09091CC0291509093CC027D
:10100000992389F190913A07992339F090913A0701
:10101000915090933A07992341F184FF10C0809139
:10102000E2008E7E81608093E2008091E1008F7EFD
:101030008093E1008091AE028E7E806111C080FFBE
:1010400016C08091E2008E7E80618093E2008091E4
:10105000E1008E7E8093E1008091AE028E7E816001
:101060008093AE0204C05D9ACDCF289AD6CF9F91CF
:101070008F910F900FBE0F901F9018951F920F9297
:101080000FB60F921124CF92DF92EF92FF920F933F
:101090001F932F933F934F935F936F937F938F9300
:1010A0009F93AF93BF93EF93FF93CF93DF93CDB70E
:1010B000DEB76C97DEBFCDBF1092E9008091E800EB
:1010C00083FFFBC168E0CE0145960E94550682EF82
:1010D0008093E8008D8987FF05C09091E80090FF1C
:1010E000FCCF03C09EEF9093E800982F907609F014
:1010F000C6C09E894F89588D2F89F88C91110CC0DC
:10110000803829F48091AF028093F10002C01092E0
:10111000F1001092F10045C1913051F4811141C1AB
:101120004130510509F03DC18091AF028D7F0BC068
:10113000933061F4811135C14130510509F031C15D
:101140008091AF0282608093AF022BC1953049F449
:101150008091E80080FFFCCF822F80688093E300BD
:1011600020C1963009F05EC00B8D1C8D22E01092DC
:10117000E9001092CA021092C902F21232C0109213
:10118000C8021092C7020E94CE0699E0BE016F5FAE
:101190007F4FDB01E92F1D92EA95E9F79983FA82E7
:1011A00091E09E8390EA98879AEF99872091C902EF
:1011B0003091CA02275F3F4F3C832B838D8310926F
:1011C000E9001092CA021092C9021093C80200935B
:1011D000C70249E050E080E00E942E060E94CE0641
:1011E000E0C01093C8020093C7020E944010DC01C7
:1011F00012960D911C9113970115110509F4BBC0AE
:10120000D801ED91FC910480F581E02DBE016B5E6B
:101210007F4FC8010995009709F0C7C0F801008504
:101220001185EACF973009F445C1983021F481E067
:101230008093F100B6C0993009F0B3C0837009F013
:1012400039C1E3E3F2E081E031E096E3208121114E
:1012500009C08EE78093EA001092EA008F8980939C
:101260003B079FC08093E9003093EB0021912093CE
:10127000EC009093ED008F5F873041F7EACF8B8DC4
:101280009C8D1092E9001092CA021092C9029093AC
:10129000C8028093C702898D811153C08E899D89B0
:1012A000913A49F4813209F005C147E050E06EEE11
:1012B00071E080E0BBC0913209F0FCC0833269F478
:1012C0008F89988DA0E0B0E08093EA019093EB01C4
:1012D000A093EC01B093ED0164C0803269F4809179
:1012E000E80082FFFCCF67E08EEE91E00E94550699
:1012F0008BEF8093E80055C0823209F052C08F898D
:101300008093F501EEEFFFE7859194918B3F9C4D23
:1013100019F0E0E0F8E002C0EEEFFAE08091EE01B3
:101320009091EF01A091F001B091F101803B9440C8
:10133000A105B10509F09EC08091F50180FF79C03B
:1013400099C00E944010FC01028113810115110512
:1013500009F4B0C0D801ED91FC910190F081E02D2D
:10136000BE016B5E7F4FC801099581111AC0F8015B
:1013700000851185EBCFF1E0FF1609F44EC0F3E0D4
:10138000FF1298C08F89882309F44AC0823089F4FB
:1013900040E860E189E99BE00E94C21B882309F4D0
:1013A00089C08EEF8093E80088C018161906CCF328
:1013B00081C0813029F440E86BE08DE89BE0ECCF00
:1013C000833009F077C00E944010DC011296ED9046
:1013D000FC9013978E010F5F1F4F6801E114F10419
:1013E00079F0D701ED91FC910680F781E02DB801ED
:1013F000C7010995080F111DF701E084F184EECFB4
:10140000D8011C92F60101900020E9F73197BF0145
:101410006C197D0940E0C601BFCF6BE77BE002C0DD
:1014200067E77BE0FB01449150E080E80E942E06D4
:10143000B8CFEE3F2AE0F20751F0808191818737E3
:10144000A7E79A0721F09093FF0A8093FE0A87E7A7
:1014500097E791838083809160008093CB029BE02B
:1014600088E10FB6F894A895809360000FBE909322
:10147000600097CF808191818737974709F091CF9E
:10148000A895809160008861809360008091CB0274
:1014900080936000EE3FBAE0FB0739F08091FE0ACE
:1014A0009091FF0A918380837CCF1092FF0A109263
:1014B000FE0A77CF81E28093EB006C960FB6F8942A
:1014C000DEBF0FBECDBFDF91CF91FF91EF91BF91F6
:1014D000AF919F918F917F916F915F914F913F91CC
:1014E0002F911F910F91FF90EF90DF90CF900F9071
:1014F0000FBE0F901F9018952D9A0895BC0180E0A3
:1015000090E00C9479108FB18095807F669B886005
:101510001C9B846008950C940F1DFC01E40FF11DC9
:10152000AF011E161F06C4F580389105ACF597FF74
:1015300002C080E090E04138510514F040E850E0EE
:10154000481BFB0177FD379633E0F595E7953A9513
:10155000E1F7F695FE2FEE27F795E795E80FF91FCF
:10156000E153FD4F6770772781E090E001C0880F5D
:101570006A95EAF7382F222341F0213069F441506F
:1015800058F08081832B8193FACF8095415020F0D1
:10159000908198239193FACF089580389105B8F4FB
:1015A00060347105A0F490E121E061FD24E060FD6C
:1015B000220F62FD2295687F969FD0011124A80F0B
:1015C000A153BD4F8C91822B40FF82278C930895AD
:1015D0002F923F924F925F926F927F928F929F9243
:1015E000AF92BF92CF92DF92EF92FF920F931F9331
:1015F000CF93DF93CDB7DEB727970FB6F894DEBF52
:101600000FBECDBF9F838E836A30A1F4DC01559657
:101610002C91559751968D919C915297B8E02B9FA4
:10162000800D911D1124EE81FF81928B818B108A98
:101630001786ADC06D3009F4AAC0AE81BF811F9678
:101640000D911C91509700381105BCF0EE81FF817F
:101650002589422F50E087859089F6E02F9F800DE5
:10166000911D1124AE81BF8150969C938E931F973C
:1016700056962C91211175C08AC0EE81FF81818818
:101680009288F0E48F1691040CF7AE81BF815596D5
:101690003C90C801B5E03B9E800D911D11241816A9
:1016A0001906A4F6432C512CC401E8E03E9E800D9F
:1016B000911D1124181619064CF6AE81BF8154965F
:1016C000BC91BC83EE81FF81F389FD8325E0629F9D
:1016D000B0011124CB018B5C994F3C011982F301BD
:1016E0002490F981F53009F4212C640128E02B8342
:1016F00020FE03C03D813A8302C08C818A839A8197
:10170000911104C0AC81BD81AB17B9F078018E2D69
:10171000801B831590F456018A2D8C19831548F48B
:101720004A81B501C7010E94CD0AEFEFAE1ABE0A89
:10173000F3CFFFEFEF1AFF0AEACF26942B81215057
:101740002B83C40CD51C2111D3CF39813F5F398342
:10175000040D151DC30101963C01363009F0BFCFC1
:1017600075CF6AEF64039001659F300D11242058F6
:101770003F4F281739075CF4AE81BF81ED91FC9192
:1017800011970190F081E02D6AE0CD01099581E08B
:1017900090E027960FB6F894DEBF0FBECDBFDF9165
:1017A000CF911F910F91FF90EF90DF90CF90BF905E
:1017B000AF909F908F907F906F905F904F903F90F1
:1017C0002F900895ECE2F2E02AE030E068EE73E05A
:1017D000A191B191AC014A1B5B0B57FF03C051951E
:1017E000419551094617570714F49D01BA0142E08B
:1017F000E433F40769F72817390744F42B5F3F4FA8
:1018000082179307A4F48FEF9FEF08958217930731
:1018100044F425503109281739074CF481E090E051
:1018200008952817390719F480E090E0089582E0C0
:1018300090E00895E2E2F2E02AE030E068EE73E042
:10184000A191B191AC014A1B5B0B57FF03C05195AD
:10185000419551094617570714F49D01BA0142E01A
:10186000EC32F40769F72817390744F42B5F3F4F30
:1018700082179307A4F48FEF9FEF089582179307C1
:1018800044F425503109281739074CF481E090E0E1
:1018900008952817390719F480E090E0089582E050
:1018A00090E00895FF920F931F93CF93DF93EC0185
:1018B000F62E08811981C8010E940F1DF81621F02B
:1018C0006F2DC8010E94171DCE01DF91CF911F918E
:1018D0000F91FF9008958F929F92AF92BF92CF92F7
:1018E000DF92EF92FF920F931F93CF93DF9300D07D
:1018F000CDB7DEB7DC014115510509F4CBC0FA01C3
:10190000B490319694914E5F5F4F8B2C912C222393
:10191000D9F0E1E0F0E0892F877011F4E0E0F0E029
:10192000892F869586958695E80FF11DE89D7001B3
:10193000E99DF00CF89DF00C11242E9DF0012F9DD7
:10194000F00D11244E0F5F1F7401EA0EFB1E1E14D2
:101950001F040CF09FC0A038B1050CF09BC09B0188
:10196000290F311D121613060CF094C06034710556
:101970000CF090C04115510509F48CC0F62FF7709A
:10198000CF2E9B0177FF02C0295F3F4F83E0359543
:1019900027958A95E1F7F22F77FF04C0CC2011F04C
:1019A000FFEFF20FB7FF05C0662777276A1B7B0B97
:1019B00002C060E070E000E8E016F10424F080E886
:1019C000D82EDA1A01C0DB2CD61A2F2F0F2E000CBE
:1019D000330BFF3F1CF4F22EF09401C0F12CE1E038
:1019E000892F877009F4E0E09695969596959E0F5D
:1019F000290F311D2930310514F098E09F1B8F2DE0
:101A00008F0F9B01BF9C200D311D1124420F531FCE
:101A100021E030E079010C2C02C0EE0CFF1C0A948E
:101A2000E2F79D01182F00E81003200D311D11244D
:101A3000260F371F21533D4F9F0F981759F1D9019A
:101A40008A01602F641B6D15F8F4F801B490BE9CF8
:101A5000B001BF9C700D11247A83698387FD03C098
:101A60007C91672B6C93CC2059F087304CF45D014E
:101A7000F0E8AF0EB11CF50170816A81672B6083BD
:101A80000F5F1F4F1196DDCF8F5F480D591D2058F6
:101A90003F4FD3CF0F900F90DF91CF911F910F91B8
:101AA000FF90EF90DF90CF90BF90AF909F908F907E
:101AB0000895CF93DF9383E190E00E940F1DCDEC5A
:101AC000D2E0888384E190E00E940F1D8983CE01DB
:101AD000DF91CF9108950F931F93CF93DF9300D0A1
:101AE000CDB7DEB78C01FC01608183E190E09A8381
:101AF0008983CE0101960E94520CF801618184E134
:101B000090E09A838983CE0101960E94520CC8010D
:101B10000F900F90DF91CF911F910F9108952F9209
:101B20003F924F925F926F927F928F929F92AF926D
:101B3000BF92CF92DF92EF92FF920F931F93CF93BA
:101B4000DF93CDB7DEB72A970FB6F894DEBF0FBE8E
:101B5000CDBF5A01822E912C9401280F391F37FDD9
:101B6000BAC0803891050CF0B6C09B01200F311D22
:101B700037FDB1C0603471050CF0ADC0AB0177FF2B
:101B800004C044275527461B570B477055279B0118
:101B900077FF02C0295F3F4FE3E035952795EA952F
:101BA000E1F777FF08C02150310968E070E0FB01E0
:101BB000E41BF50BAF01202E269426942694312C9D
:101BC000077019F0FFEF2F1A3F0A220E331E39015A
:101BD0007694762C662477946794680E791EE12CAF
:101BE000F12C00E010E0B30160587F4F7A876987DD
:101BF00068E070E0FB01E41BF50BFA83E983221631
:101C0000330609F468C02830310509F464C02F3F59
:101C1000FFEF3F070CF454C0E985FA85E00FF11F90
:101C2000BF0161537D4F7C836B83D801A60DB71D27
:101C3000A153BD4F6C0160E070E0681579050CF0B0
:101C40003FC0E0E8CE16D10409F43AC0D7FC2CC05E
:101C50002F3FFFEF3F0709F43AC0FB01EE0DFF1DD8
:101C6000EA0DFB1DE491042E01C0EE0F0A94EAF781
:101C7000FC91EF2BEC9341155105B1F02730310564
:101C800099F0FB01EE0DFF1DEA0DFB1DE4914E2EB8
:101C9000512C098002C0559447940A94E2F7EB81D5
:101CA000FC815080452840826F5F7F4FEB81FC8133
:101CB0003196FC83EB83FFEFCF1ADF0A1196BDCF7D
:101CC0002F5F3F4F00581F4FE80CF91C98CF41156C
:101CD0005105B9F6E9CF2A960FB6F894DEBF0FBECC
:101CE000CDBFDF91CF911F910F91FF90EF90DF90CB
:101CF000CF90BF90AF909F908F907F906F905F90AC
:101D00004F903F902F9008958F929F92AF92BF92E5
:101D1000CF92DF92EF92FF920F931F93CF93DF93B7
:101D20007C01EB01142FD22E6034710518F4202FA2
:101D30000E948D0A4E018D0C911CB40161507109F5
:101D40006034710528F4202F412FC7010E948D0AAD
:101D5000D7FF02C0C0E0D0E05E01640181E48816D4
:101D600091041CF080E4C82ED12CAC14BD044CF4BA
:101D7000402FB501C7010E94CD0A8FEFA81AB80AFB
:101D8000ECCFE10EF11C81E0E81AF108CC15DD057D
:101D90003CF4402FBE01C7010E94CD0A2196F6CF28
:101DA000DF91CF911F910F91FF90EF90DF90CF9037
:101DB000BF90AF909F908F9008958F929F92AF9217
:101DC000BF92CF92DF92EF92FF920F93CF93DF9368
:101DD0006B01EC014C01840E911C5B01A20EB11C45
:101DE000C815D905D4F47601D7FE02C0E12CF12C38
:101DF000C50121E4A216B10414F080E490E0E816D5
:101E0000F9064CF4402FB701CE010E94CD0A8FEFA6
:101E1000E81AF80AEDCF2196E3CFDF91CF910F9129
:101E2000FF90EF90DF90CF90BF90AF909F908F90FA
:101E3000089580E0EFECF2E081118FEF00248193B0
:101E40008193819381930394D1F70895EFECF2E0AD
:101E5000A0E0B8E000800EBC8111012C1197A0FD1C
:101E6000FDCF0192B9F70DB408950F931F93CF934F
:101E7000DF93809164008E7F8093640080917A006C
:101E8000806480937A0080917A0086FDFCCFC091B7
:101E90007800D09179000E9454108E0120E030E04B
:101EA000980111270027600F711F821F931F209137
:101EB000640021602093640061157105810591051E
:101EC00031F0DF91CF911F910F910C94061DDF919E
:101ED000CF911F910F9108958091290783FD06C02E
:101EE0008091280783FB882780F9089580E0089572
:101EF000009769F0FC0101900020E9F73197AF01EC
:101F0000481B590BBC018FE197E00C94620680E0FE
:101F100090E008950C94780F8F929F92AF92BF92A9
:101F2000CF92DF92EF92FF920F931F93CF93DF93A5
:101F3000CDB7DEB7A1970FB6F894DEBF0FBECDBF09
:101F40006C01990FEE08FF08F7FE2BC06DE28FE1E0
:101F500097E00E94E80A8C0122273327A9012C1957
:101F60003D094E095F0919A2CE0181967C019AE0D4
:101F7000892E912CA12CB12CCA01B901A501940183
:101F80000E94571D605DF70162937F0121153105A5
:101F90004105510589F7CF010E94780F800F911FED
:101FA0001DC0A701960119A28E010F5D1F4F8AE087
:101FB000C82ED12CE12CF12CCA01B901A701960140
:101FC0000E94571D605DF80162938F012115310554
:101FD0004105510589F7CF010E94780FA1960FB6F0
:101FE000F894DEBF0FBECDBFDF91CF911F910F914F
:101FF000FF90EF90DF90CF90BF90AF909F908F9029
:10200000089520913B07211103C08FEF9FEF0895A2
:102010005FB7F89422E02093E9002091F20030E0CD
:102020001216130614F421E030E0422FFC0184E67E
:10203000415038F0289880933A079091F10091939D
:10204000F7CF2115310521F08091F200882319F096
:102050005FBFC90108958BE68093E800F9CF2FB7E1
:10206000F89483E08093E9009091E800892F8072D2
:1020700095FF04C09091F20080E4891B2FBF089562
:102080008091450781110DC082E08093410784E073
:1020900080934207109244071092430781E0809397
:1020A000450781E497E008953FB7F89480913D0794
:1020B00090913E07A0913F07B091400726B5A89B9D
:1020C00005C02F3F19F00196A11DB11D3FBFBA2FCA
:1020D000A92F982F8827820F911DA11DB11DBC012A
:1020E000CD0142E0660F771F881F991F4A95D1F7EF
:1020F00008958F929F92AF92BF92CF92DF92EF920C
:10210000FF926B017C010E9454104B015C01C114D1
:10211000D104E104F104F1F00E945410DC01CB0180
:1021200088199909AA09BB09883E9340A105B10500
:1021300070F321E0C21AD108E108F10888EE880E98
:1021400083E0981EA11CB11CC114D104E104F10468
:1021500019F7DDCFFF90EF90DF90CF90BF90AF9059
:102160009F908F9008951F920F920FB60F92112497
:102170002F933F938F939F93AF93BF938091360795
:1021800090913707A0913807B091390730913C07FB
:1021900023E0230F2D3720F40196A11DB11D05C0AA
:1021A00026E8230F0296A11DB11D20933C078093C2
:1021B000360790933707A0933807B093390780917B
:1021C0003D0790913E07A0913F07B09140070196CF
:1021D000A11DB11D80933D0790933E07A0933F073B
:1021E000B0934007BF91AF919F918F913F912F91F5
:1021F0000F900FBE0F901F901895CF93DF93CDB720
:10220000DEB72A970FB6F894DEBF0FBECDBF789425
:1022100084B5826084BD84B5816084BD85B58260EB
:1022200085BD85B5816085BD80916E00816080939C
:102230006E00109281008091810082608093810005
:102240008091810081608093810080918000816015
:1022500080938000809191008260809391008091B2
:1022600091008160809391008091900081608093C3
:1022700090008091C10084608093C1008091C10072
:1022800082608093C1008091C10081608093C10011
:102290008091C30081608093C3008091C000826000
:1022A0008093C0008091C20081608093C2008091C1
:1022B0007A00846080937A0080917A0082608093B3
:1022C0007A0080917A00816080937A0080917A0010
:1022D000806880937A0010923B071092AF021092B0
:1022E000AE028091D70081608093D70080EA80930E
:1022F000D80089B5806189BD89B5826089BD09B47E
:1023000000FEFDCF61E070E080E090E00E94791077
:102310008091D8008F7C80618093D8008091E0000C
:10232000807F8093E0008091E1008E7E8093E100C9
:102330008DE08093E200559A209A81EC80937C0096
:1023400085B1806F85B984B1877E84B984B1876E89
:1023500084B95E9A5F988AB1806D8AB9769A6E98D0
:1023600081B3806F81BB899880B38D7080BB80E51D
:102370008CBD81E08DBD85E090E00E947E0A5F9A71
:1023800085E090E00E947E0A5E985C98E0E1F2E0D1
:1023900084918EBD00000DB407FEFDCF319622E082
:1023A000ED31F207A9F75C9A81E88093640080918F
:1023B000650081608093650080E00E94260F0E9486
:1023C000830A87FF15C05C9885EA8EBD00000DB4B6
:1023D00007FEFDCF5C9A2E982F982D98809164006F
:1023E00080628093640081E083BF889513BEFCCF38
:1023F00002E010E00E94830A82FF42C02D980E94F2
:10240000830A8478843831F00E94830A847184318D
:1024100091F519C00E947C0A88EC90E00E947E0A27
:102420002F981A8309836FEFCE0101960E94520CF8
:1024300084EF91E00E947E0A2F9A0E94830A84789A
:102440008438D9F3E1CF0E947C0A88EC90E00E94A6
:102450007E0A2E981A83098360E0CE0101960E94BD
:10246000520C84EF91E00E947E0A2E9A0E94830A09
:1024700084718431D9F388EC90E00E947E0ABACF4F
:102480000E947C0A82E090E00E948B0A882319F067
:102490003E9A3F9A02C03E983F9881E090E00E94A9
:1024A0008B0A182F147081FF3FC011112E9880EFF6
:1024B000E82EFF24FA940E94830A86FF05C02E9A14
:1024C0002F9A0E947C0A30C0112331F034E0E316C9
:1024D000F10411F42E9A2F9881E00E94260F00E15A
:1024E00028E540E651E0B70184E190E00E948F0DBD
:1024F00080E00E94260F8FE090E00E947E0A4FEF5E
:10250000E41AF40A59E1E516F104A9F6112311F0D1
:102510002F9A2D9880E991E00E947E0A0E947C0A01
:102520008FE197E00E94F71B82E390E00E947E0A11
:102530000E94830A8111F8CF8FEF9FEF9093DC0602
:102540008093DB060E94190F10923107109230071A
:1025500010922F0710922E0781E280932A0781E0C4
:1025600090E09093C0028093BF021092C602109236
:10257000C50281E190E00E948B0A182F82E190E071
:102580000E948B0A1D3411F48635C1F081E190E080
:102590009A8389836DE4CE0101960E94520C82E1F8
:1025A00090E09A83898366E5CE0101960E94520CE1
:1025B0001A821982CE0101960E946B0D0E94590D5C
:1025C00004E0202E312C0E94190F10923107109236
:1025D000300710922F0710922E07809128078093C2
:1025E00029070E94830A809328078091C502909151
:1025F000C602029709F013C18091C3029091C402F0
:102600000197D9F48091C1029091C202EAEAF1E007
:102610002AEE31E0448155814130510511F48C5945
:102620009F4F38962E173F07A9F79093C2028093C9
:10263000C1021092C4021092C3023092A1012092F2
:10264000A0013092A3012092A20164E770E0709390
:1026500011016093100124E330E0309313012093C3
:1026600012018CE390E090932301809322018CE18E
:1026700090E0909325018093240140E250E0509334
:10268000350140933401309337012093360168E5DA
:1026900070E07093470160934601309249012092A7
:1026A0004801709359016093580130935B01209366
:1026B0005A0150936B0140936A0190936D0180938E
:1026C0006C01A4E7B0E0B0937D01A0937C0130924F
:1026D0007F0120927E01B0938F01A0938E01909391
:1026E00091018093900180910E0190910F010697C6
:1026F00039F483E090E09093C6028093C5028FC0C6
:1027000019E2E12EF12CF0922F07E0922E071092A1
:102710003107109230078FE592E00E948A0F809176
:102720000E0190910F010E948C0F88E290E090932F
:102730002F0780932E078FE090E0909331078093CE
:10274000300786E692E00E948A0F80910C019091FA
:102750000D010E948C0F03E210E010932F070093ED
:102760002E0789E190E090933107809330078DE642
:1027700092E00E948A0F80910A0190910B010E94C1
:102780008C0FF0922F07E0922E07109331070093E1
:1027900030078DE992E00E948A0F8091C1029091EA
:1027A000C2020E948C0F10932F0700932E078DE218
:1027B00090E090933107809330078BE992E00E947C
:1027C0008A0F8091CD029091CE020E948C0F85E0FD
:1027D00090E090932F0780932E0787E390E09093EB
:1027E00031078093300786E792E00E948A0F64E603
:1027F00070E080E090E00E94791001E010E010931A
:10280000C0020093BF020E946C0F882341F0109316
:10281000C4020093C3021093C6020093C5028091C4
:10282000C5029091C602892B09F061C0C12CD12C40
:10283000E12CF12C00E010E0F801B3E0F595E7950C
:10284000BA95E1F7EC0DFD1DEB5CFD4F849198010D
:1028500027703327E0E8F0E002C0F595E7952A9568
:10286000E2F79F01E82FF0E0E223F323EF2B29F0BA
:1028700041E0B701C8010E94CD0A0F5F1F4F003829
:102880001105D1F6FFEFEF1AFF0A20E1C20ED11CAD
:1028900030E4E316F10471F60E946C0F882309F40A
:1028A000C3C083E090E090930D0180930C0181E020
:1028B00090E090930F0180930E0185E090E090935B
:1028C0000B0180930A011092C2021092C102E0E152
:1028D000F1E08EE891E0158E148E72968E179F07A8
:1028E000D1F782E090E09093C6028093C502809178
:1028F000C5029091C602039709F096C003E210E06A
:1029000010932F0700932E07109231071092300773
:102910008AE892E00E948A0F8FE290E090932F075E
:1029200080932E078AE090E09093310780933007E0
:1029300082E992E00E948A0F10932F0700932E07DE
:1029400089E190E090933107809330078DE992E020
:102950000E948A0F8091C1029091C2020E948C0F46
:102960008091C1029091C2022091CD023091CE029D
:10297000821793073CF19093CE028093CD0281E1C0
:1029800090E09A8389836DE4CE0101960E94520CF7
:1029900082E190E09A83898366E5CE0101960E94E8
:1029A000520C8DEC92E00E946B0D84E190E09093CC
:1029B0002F0780932E07109331070093300787E984
:1029C00092E00CC08EE190E090932F0780932E0749
:1029D00010933107009330078BE992E00E948A0F31
:1029E0008091CD029091CE020E948C0F85E090E004
:1029F00090932F0780932E0787E390E09093310701
:102A00008093300786E792E00E948A0F64E670E0C8
:102A100080E090E00E9479100E946C0F882321F0E2
:102A20001092C6021092C5028091C5029091C60212
:102A3000049709F086C085E290E090932F07809379
:102A40002E07109231071092300784EA92E00E941C
:102A50008A0F83E290E090932F0780932E078FE0F8
:102A600090E090933107809330078DE992E00E94C7
:102A70008A0F8091C1029091C2020E948C0F8091B6
:102A8000C1029091C2022091CD023091CE028217F4
:102A900093074CF19093CE028093CD0281E190E0B8
:102AA0009A8389836DE4CE0101960E94520C82E1E3
:102AB00090E09A83898366E5CE0101960E94520CCC
:102AC0008DEC92E00E946B0D84E190E090932F07D3
:102AD00080932E0789E190E090933107809330072F
:102AE00087E992E00EC08EE190E090932F078093EB
:102AF0002E0789E190E090933107809330078BE9AE
:102B000092E00E948A0F8091CD029091CE020E94A5
:102B10008C0F85E090E090932F0780932E0787E33A
:102B200090E0909331078093300786E792E00E940F
:102B30008A0F0E946C0F882321F01092C602109217
:102B4000C5028091C5029091C602019721F080E0F4
:102B50000E94260FD3C08091BF029091C0020197BE
:102B600009F086C01092BE021092BD021092BC0203
:102B70001092BB020E94350F0E94B81C27E030E083
:102B800040E050E00E94251D7093BA026093B902A4
:102B90000E94B81C27E030E040E050E00E94251D74
:102BA0007093B8026093B7022091B9023091BA02D3
:102BB0002617370769F30E94B81C27E030E040E091
:102BC00050E00E94251D7093B6026093B5022091DB
:102BD000B9023091BA026217730769F32091B70204
:102BE0003091B8026217730731F30E94B81C20E7D6
:102BF00030E040E050E00E94251DDC01CB0104964E
:102C0000A11DB11D9093B4028093B3021092B20241
:102C10001092B1020E94590DEAEAF1E08AEE91E0C9
:102C20001582148248E050E05783468338968E1709
:102C30009F07B1F7E0910E01F0910F01EE0FFF1F1A
:102C4000EE0FFF1FE65FFD4F42815381E0E1F1E0AF
:102C500080E090E021E030E0841795072CF4338782
:102C6000228701967296F8CF1092C0021092BF028E
:102C70008FB7F89440913607509137076091380725
:102C8000709139078FBF80912B07942F981B892F44
:102C900090912C07992329F080932D0710922C07EF
:102CA0002DC090912A07891740F48F5F891730F55E
:102CB00081E083BF889513BE21C081E080932C07FB
:102CC00040932B07809126079091270701969093B8
:102CD0002707809326070E94190F10923107109240
:102CE000300710922F0710922E070E94830A85FD4D
:102CF0000CC40E94830A86FD08C408C080E090E0EE
:102D0000892B09F460CC0E9400005ACC0E94830AEF
:102D100087FD57C40E94830A84FD53C430E1432ECB
:102D200031E0532E820144E3642E712C52E0852E53
:102D3000912C63E0A62EB12CCC24C394D12CD801C5
:102D40001A968D919C911B97892B09F4F7C08D9150
:102D50009C910E941A0C7C01F801828193810E944F
:102D6000E20B892B09F097C0EF2809F094C0D80135
:102D70005096ED90FC905197B1E0EB16F10499F567
:102D80000E94350F0E94B81C2BE030E040E050E07C
:102D90000E94251DDC01CB010196A11DB11D8130D2
:102DA000910509F45CC08230910531F4D801179681
:102DB000FC92EE9216976FC08330910521F4F801D2
:102DC0009782868268C08430910531F4D8011796C5
:102DD000BC92AE9216975FC0059709F05CC0F801EF
:102DE000118A108A58C00E94350F0E94B81C2BE02F
:102DF00030E040E050E00E94251DDC01CB0101964F
:102E0000A11DB11D019729F4D8015196DC92CE92F3
:102E10005097F801E080F180E091A001F091A101CC
:102E2000D80112966D917C9113974091A201509117
:102E3000A301CB01841B950B97012E1B3F0B37FF82
:102E400003C031952195310997FF03C09195819574
:102E500091098217930784F4EE16FF0624F4F80113
:102E60001782168218C0EE15FF05ACF4D80117962C
:102E7000DC92CE9216970FC06417750724F4F80100
:102E8000B782A68208C0461757072CF4D8011796B8
:102E90009C928E921697F8012681378180819181CC
:102EA0002115310539F424813581820F931F9183D7
:102EB000808320C02130310539F424813581821B83
:102EC000930B9183808316C0F80182819381233014
:102ED000310539F424813581820F931F93838283D6
:102EE00009C02230310531F424813581821B930BD6
:102EF00093838283F80180819181049714F4318255
:102F00002082D8018D919C9111978537910524F0ED
:102F1000E4E7F0E0ED93FC93D80112968D919C913B
:102F20001397049724F413963C922E921297F8016B
:102F300082819381C59714F0738262820E5E1F4F67
:102F4000F1E0003A1F0709F0FACE0E94830A82FFDF
:102F50000EC08091080190910901892B41F4809164
:102F60000A0190910B01181619060CF4B8C3409190
:102F70000801509109014115510509F45EC0809185
:102F80000601909107012091000130910101009705
:102F900039F48091040190910501280F391F09C06F
:102FA0008130910559F48091040190910501281B0D
:102FB000390B30930101209300011EC0833091052D
:102FC00059F4209102013091030180910401909104
:102FD0000501820F931F0CC0029771F480910201CA
:102FE000909103012091040130910501821B930B04
:102FF00090930301809302014130510559F460918F
:1030000002017091030141E0809100019091010162
:103010000E94CD0A809100019091010104978937A7
:10302000910538F480910201909103010497C997AA
:1030300020F010920901109208010E94830A60900A
:10304000A0017090A10183FF50C0A090A201B09098
:10305000A3018090B9029090BA02E090B102F09082
:10306000B2022091B7023091B8023C832B830091C9
:10307000BD021091BE02A0910A01B0910B014091D6
:10308000B5025091B6025E834D836091BB02709190
:10309000BC024091C1025091C202EAEAF1E080E034
:1030A00090E09501285F3F4F38872F832081318141
:1030B000621673060CF04FC0019638968830910561
:1030C000A9F7F092B202E092B1021093BE0200930F
:1030D000BD02B0930B01A0930A017093BC026093F0
:1030E000BB025093C2024093C1028090A201909013
:1030F000A3010091080110910901A0900001B09076
:103100000101A5014E5F5F4F5C834B83C0900201BC
:10311000D0900301B6016E5F7F4F7E836D83730194
:1031200074E0E70EF11CC401089698878F834091E4
:103130000C0150910D01A091C502B091C602809181
:10314000260790912707FC01E370FF27FA87E9879C
:10315000E0E1F1E043C0255F3F4F621673060CF0DB
:10316000ABCF228133813A872987690134E1C30ECD
:10317000D11C2F813885C216D3060CF09DCF29852E
:103180003A85245E3F4FA216B3060CF095CFCDC210
:1031900080819181228133810115110521F5668598
:1031A000778516161706F4F56150710977876687DB
:1031B0008E159F050CF43FC0848195811816190661
:1031C0000CF44BC084859585029714F015861486FF
:1031D000729631E0E03AF30709F44AC0828593859C
:1031E000892BB1F3D5CF6B817C8186179707BCF60D
:1031F000BC016A5F7F4FA616B7068CF66D817E8193
:103200002617370764F6B901685F7F4FC616D706E1
:1032100034F6158214826CE370E07787668700E0ED
:1032200010E0BDCF1786168661E070E07583648379
:103230008E159F0594F40696681679060CF0BCCF9F
:103240008F819885281739070CF0B6CF285F3F4F3C
:10325000821693060CF0B0CF8CC229853A85232BB9
:1032600009F0B0CF84859585019695878487AACF8C
:103270001093090100930801B093C602A093C50200
:1032800050930D0140930C018091B002823010F0F8
:103290001092B002D2011A968D919C911B97892BA6
:1032A000C9F01696ED91FC911797EE0FFF1FE650AF
:1032B000FE4F4081518119965C934E931897129658
:1032C0006D917C9113971C962C911C978D919C91DC
:1032D0000E946B0CB2E14B0E511CE0EA4E16E1E08D
:1032E0005E06C1F6E091A601F091A701EE0FFF1F67
:1032F000EC5FFD4F408151815093A9014093A8019B
:103300006091A2017091A3012091B0028091A0016F
:103310009091A1010E946B0CE12CF12C01E024E0C2
:1033200044E060E070E0C7010E94840E24E044E0C5
:103330006CE370E0C7010E94840EF4E0EF0EF11C14
:1033400020E8E216F10451F754E0E52EF12C01E0FB
:1033500024E044E0B70180E090E00E94840E24E085
:1033600044E0B7018CE790E00E94840E34E0E30E65
:10337000F11C4CE3E416F10451F78091B1029091F5
:10338000B202019759F400E024E048E060E070E008
:103390008091B3029091B4020E94DD0E3AEAE32ECE
:1033A00031E0F32E4AEE442E41E0542ED70112961E
:1033B000AD90BC9013978D909C9001E028E044E183
:1033C000B501C4010E94DD0E6501B8E0CB0ED11C31
:1033D00028E047E0B601C4010E94DD0E28E047E086
:1033E000B601C4010D960E94DD0EF701848195811E
:1033F0009401295F3F4F3901892BD1F427E046E042
:10340000B601C3010E94DD0E00E028E046E0B601EF
:10341000C3010E94840EB501615F7F4F6034710566
:1034200030F521E042E0C40109960E948D0A1FC0D8
:10343000A680B78001E02A2D46E0B601C3010E94B4
:10344000DD0E00E028E046E0B601C3010E94840ED4
:10345000B1E0AB1AB1081A141B0424F4F701B782C7
:10346000A68205C0D70117961C921E921697E0916E
:10347000B902F091BA0283E0EE0FFF1F8A95E1F7DF
:10348000E655FE4F62817381675F7F4F8081918136
:1034900008E028E04DE252E006960E948F0DE09190
:1034A000B702F091B80293E0EE0FFF1F9A95E1F793
:1034B000E655FE4F62817381695F7F4F8081918104
:1034C00028E045E252E006960E948F0DE091B50299
:1034D000F091B60223E0EE0FFF1F2A95E1F7E655C3
:1034E000FE4F62817381685F7F4F8081918128E008
:1034F0004DE152E006960E948F0DB8E0EB0EF11CF4
:103500004E145F0409F052CF22CB8091C1029091FA
:10351000C20201969093C2028093C1020091A2015F
:103520001091A301C8010E94E20B823091050CF0BA
:10353000F5CB800F911F9093A3018093A2010E946D
:10354000830A86FF25C01092A7011092A6018091E0
:10355000A0019091A101843791050CF0DFCB20915F
:10356000A4013091A501820F931F9093A101809334
:10357000A001809126079091270783709927892BB6
:1035800009F0CCCB8091B0028F5F8093B002C6CBA4
:103590000E94830A85FFC2CB81E090E09093A7014F
:1035A0008093A6018091A0019091A10185309105A1
:1035B0000CF4B4CB2091A4013091A501821B930B94
:1035C000D4CF0091C1021091C202C801019690931C
:1035D000C2028093C1028091B1029091B202019720
:1035E000E9F40E94830A87FF19C08091A20190919B
:1035F000A301049799F42091A0013091A101809139
:10360000B3029091B402AC014E5F5F4F4217530773
:103610002CF00297281739070CF047C00091A00141
:103620001091A101C8010E941A0C823091050CF082
:1036300075CB800F911F9093A1018093A0010E94F0
:10364000830A87FF15C082E090E09093A7018093E2
:10365000A6018091A2019091A301853091050CF4FF
:103660005DCB2091A4013091A501821B930B18C062
:103670000E94830A84FF52CB83E090E09093A701DD
:103680008093A6018091A2019091A30184339105BA
:103690000CF044CB2091A4013091A501820F931F1F
:1036A0009093A3018093A20164CF22E030E0309395
:1036B000A7012093A60180910E0190910F01019620
:1036C00090930F0180930E010B501E4F1093C20276
:1036D0000093C1023093C6022093C5029FCF019789
:1036E00090930B0180930A0181E090E0909309018F
:1036F000809308018091A0019091A101049690937C
:103700000101809300018091A2019091A301049690
:1037100090930301809302018091A6019091A701EB
:10372000909307018093060122CC21E030E035839D
:1037300024838816990619F4EE24E394F12C2B8146
:103740003C812817390731F40115110519F4119638
:1037500001E010E02D813E812817390709F0ACCC3B
:103760006115710509F0A8CC48515C4F61E070E02B
:10377000A3CC4150510919F4A4E0B0E01DCDA2E062
:10378000B0E01ACDDF92EF92FF920F931F93CF9389
:10379000DF93D82EF92EE42E062F10E0C8010196F3
:1037A000880F0E94000683E00E940006CD2DDF2DC9
:1037B0000C0F1D1FC017D10789F0E7FE03C0FE01E3
:1037C000849101C088810E940006F82E80E00E944A
:1037D00000068F2121968111EDCF01C081E0DF919C
:1037E000CF911F910F91FF90EF90DF9008950F936D
:1037F0001F93CF93DF938C0181E090E00E948B0AAE
:1038000080FF32C08AE090E00E948B0A9FEF980F01
:103810009E3F50F522E330E0D80150963C932E9322
:103820001F9728E330E052963C932E935197CBE0BC
:10383000D0E0D801ED91FC910190F081E02D682F4E
:10384000C8010995CE010E948B0A2196C131D1058C
:1038500081F780E00E94260F88EE93E0DF91CF9100
:103860001F910F910C947E0ADF91CF911F910F91C0
:10387000089504970C94F71BEFECF6E01382128284
:1038800088EE93E0A0E0B0E084839583A683B783BD
:103890008DE392E0918380838FEF9FEF95878487FC
:1038A000EFE1F7E0138212821186128680E18387AE
:1038B0001086178215868FE492E0918380838DE5D0
:1038C00092E095838483108A1786128A118A81E098
:1038D000838B148A858B168A08958F929F92AF925C
:1038E000BF92CF92DF92EF92FF92CF93DF93EC01E2
:1038F000688179818A819B816115710581059105B6
:1039000021F464E279ED8BE597E02DE133EF41E0BE
:1039100050E00E94251D49015A019B01AC01A7EA14
:10392000B1E40E94441D6B017C01ACEEB4EFA50133
:1039300094010E94521DDC01CB018C0D9D1DAE1D1A
:10394000BF1DB7FF03C00197A109B04888839983C1
:10395000AA83BB83BC01CD019F77DF91CF91FF90FC
:10396000EF90DF90CF90BF90AF909F908F90089591
:103970008F929F92AF92BF92CF92DF92EF92FF927F
:103980006091F6017091F7018091F8019091F90131
:10399000611571058105910521F464E279ED8BE5EE
:1039A00097E02DE133EF41E050E00E94251D4901F1
:1039B0005A019B01AC01A7EAB1E40E94441D6B01CE
:1039C0007C01ACEEB4EFA50194010E94521DDC0114
:1039D000CB018C0D9D1DAE1DBF1DB7FF03C0019710
:1039E000A109B0488093F6019093F701A093F801E4
:1039F000B093F901BC01CD019F77FF90EF90DF906C
:103A0000CF90BF90AF909F908F9008956093F601F4
:103A10007093F7018093F8019093F9010895F99953
:103A2000FECF92BD81BDF89A992780B50895262FC3
:103A3000F999FECF1FBA92BD81BD20BD0FB6F89493
:103A4000FA9AF99A0FBE01960895052E97FB1EF477
:103A500000940E943C1D57FD07D00E94571D07FC93
:103A600003D04EF40C943C1D509540953095219513
:103A70003F4F4F4F5F4F089590958095709561959A
:103A80007F4F8F4F9F4F08950E94791DA59F900DE6
:103A9000B49F900DA49F800D911D11240895B7FF30
:103AA0000C94441D0E94441D821B930B0895A1E2B7
:103AB0001A2EAA1BBB1BFD010DC0AA1FBB1FEE1FA8
:103AC000FF1FA217B307E407F50720F0A21BB30BF3
:103AD000E40BF50B661F771F881F991F1A9469F76F
:103AE00060957095809590959B01AC01BD01CF01CB
:103AF0000895A29FB001B39FC001A39F700D811DC7
:103B00001124911DB29F700D811D1124911D0895E6
:103B1000EE0FFF1F0590F491E02D099481E090E0F5
:0A3B2000F8940C94931DF894FFCF65
:103B2A00000000000400000000000500030005007A
:103B3A0074003400010000003C0101000000000094
:103B4A0000003C001C00010000003C0100000000D5
:103B5A000000010020003400010000003C010000C8
:103B6A0000000000010058000400010000003C01B0
:103B7A0000000000000000005800340001000000AE
:103B8A003C01000000000000000020001C000100B1
:103B9A0000003C0100000000000000007400040066
:103BAA00010000003C010000000000000000740059
:103BBA001C00010000003C010000000000000000A1
:103BCA0004000400020000004E010C000C0000007A
:103BDA00080028000C000000080044000C00000047
:103BEA00080060000C00000008000C00240000001F
:103BFA0008002800240000000800440024000000F7
:103C0A0008006000240000000800FFFFFFFF00E139
:103C1A00000000000000010000003C01E200D000AA
:103C2A00BE00AC004E012A0118010601F400010091
:103C3A000100020002000300020004000300050064
:103C4A000400040020003C005800740004001C001A
:103C5A00340000C18081000000000000008C0600D2
:103C6A00078607A206AD06AE078A0700000000E82D
:103C7A000A6206C906C806F71BFCFF0000391C4C7D
:103C8A006576656C20004C69766573200042756C18
:103C9A006C65747320005072657373204120746FD1
:103CAA0020436F6E74696E756500596F7520576988
:103CBA006E0059617920004E657720486953636F19
:0E3CCA0072652000596F75204C6F7365000005
:00000001FF
