:100000000C9405070C942D070C942D070C942D07C8
:100010000C942D070C942D070C942D070C942D0790
:100020000C942D070C942D070C94B7080C942909F7
:100030000C942D070C942D070C942D070C942D0770
:100040000C942D070C942D070C942D070C942D0760
:100050000C942D070C942D070C942D070C943D0C3B
:100060000C942D070C942D070C942D070C942D0740
:100070000C942D070C942D070C942D070C942D0730
:100080000C943F0D0C942D070C942D070C942D0708
:100090000C942D070C942D070C942D070C942D0710
:1000A0000C942D070C942D070C942D0708080C0CAC
:1000B0000CF3F30C0C0C0C0C0CF3F30C0C0C0808EC
:1000C0000C0C0CF3F30C0C0C0C0C0CF3F30C0C0CD4
:1000D000080800006A3D3DDA00000000DA3D3D6A94
:1000E000000008080000DA3F3F6A000000006A3F95
:1000F0003FDA00000808000092FFFF020000000045
:10010000D27F3FE20000080800006A3D3DDA0000AF
:100110000000DA3D3D6A000008080000DA3F3F6A4F
:10012000000000006A3F3FDA000008082010FA7E55
:100130004ADE100020907A7E4ADE10000808001087
:10014000DE4A7EFA10200010DE4A7E7A90200808EF
:10015000000002FFFF9200000000E23F7FD200009B
:10016000F0F89C8E8783878E9CF8F00000FEFF03DA
:1001700003030303070EFCF80000FEFF0303030361
:1001800003070EFCF80000FFFF0000000000000065
:10019000FFFF0000FEFF8383838383C7EE7C38006C
:1001A00000F8FC0E07030303070EFCF800003F7F76
:1001B000E0C08080C0E07F3FFFFF0101010101013D
:1001C00001FFFF0000FFFF0C0C0C0C1C3E77E3C18D
:1001D00000007FFFC0C0C0C0C0E0703F1F00001F14
:1001E0003F70E0C0C0C0E0703F1F00007FFFC1C192
:1001F000C1C1C1E3773E1C00001F3F70E0C0C0C01A
:10020000E0703F1F000000000001FFFF0100000040
:10021000D5F08D14A1C881CFD9F1AF2000000074B2
:100220006A426800000000F8A4A4F800000000067C
:1002300079490600000681C80000003C00F780C82C
:100240000000003C00DC80C80000003C00DC805066
:100250000000003C00F780500000003C0006815088
:100260000000003C004A81500000003C0006815024
:100270000000003C00F780500000003C00DC80C81B
:100280000000003C00F780500000003C0006815058
:100290000000003C004A81500000003C004A81C838
:1002A0000000003C005D81500000003C004A81508D
:1002B0000000003C002681500000003C00068150F8
:1002C0000000003C002681500000003C00268150C8
:1002D0000000003C002681C80000003C004A81501C
:1002E0000000003C002681500000003C00068150C8
:1002F0000000003C00F780500000003C0001800638
:10030000812C0100005000F7802C0100005000DC1F
:10031000802C0100005000DC80780000005000F7C5
:100320008078000000500006817800000050004AEC
:10033000817800000050000681780000005000F72E
:1003400080780000005000DC802C0100005000F795
:100350008078000000500006817800000050004ABC
:10036000817800000050004A812C01000050005D9F
:10037000817800000050004A81780000005000267B
:1003800081780000005000068178000000500026AF
:10039000817800000050002681780000005000267F
:1003A000812C01000050004A817800000050002696
:1003B000817800000050000681780000005000F7AE
:1003C0008078000000500001800000000000000064
:1003D000000000000000000000000000000000001D
:1003E000000000000000000000000003800000008A
:1003F000000000000000000000001F818000038159
:10040000C00000000000000C000070E1800001C38B
:10041000800000000000000C00006061800001C34B
:10042000800000000000000C0000C031FC0001E76B
:100430008E38FDC7EE3C3C0C0000C031C60001E721
:1004400086187763BB18180C0000C031860001BD08
:1004500086186663330C300C0000C031860001BD85
:1004600086186663330C300C0000C0318600019999
:10047000861866633306600C0000C031860001995F
:1004800086186663330660000000606186000181A3
:10049000861866633303C000000070E18601818125
:1004A000863866633303C00C00001F83CF0183C30B
:1004B000C3FCF777BB81800C000000000003000044
:1004C00000000000000180000000000000000000AB
:1004D0000000000000030000000000000000000019
:1004E0000000000000030000000000000000000009
:1004F00000000000000F800000000000000000006D
:1005000000000000000000000000000000000000EB
:1005100000000000000000000000000000000000DB
:1005200000000000000000000000000000000000CB
:1005300000000000000000000000000000000000BB
:1005400000000000000000000000000000000000AB
:1005500000080000000000000000003E0000000055
:10056000001C0000001E0000000000DE0000000073
:1005700000360000002FE000000003FC0E00000029
:1005800000FF8000007FF800000000301F00000026
:100590000122400000221800000000307FC000004F
:1005A000022220000026380000000030FFF000008A
:1005B000044110000010F00000000039FFFF40006F
:1005C000084108000003C0000000003FFFF9C00020
:1005D00010808400000780000000001FFFF800006A
:1005E00020808300000E00000000001FFFF00000CC
:1005F000FFFFFF80000E700000000001804000013E
:10060000010040400006FC00000000010040000224
:10061000020040200007E0000000000300C00004CA
:10062000020020100003C00000000001004000088C
:1006300004002008000000000000000300C00010BB
:100640000400100400000000000000000000007F13
:10065000FFFFFFFF0000000000000000000000801E
:1006600008000800800000000000000000000100F9
:10067000100004004000000000000000000003FF24
:10068000FFFFFFFFE000000000000000000000008E
:100690000000000000030000000000000000000057
:1006A00000000000000780000000000000000000C3
:1006B00000000018300CC01E0001C380000078004C
:1006C0000000003C781860060000E700FF80CC0CBA
:1006D000E00666244810219E00006603C3E18606FA
:1006E000E00FFE3FF810207F80007E076001860744
:1006F000E01BBA1FF010200E6001FF8627C186079D
:100700006000000C6078600E0001FF876EE7CF820A
:100710006000001FF0CC600E00007E03CC60000281
:100720007F02043FF884400E000066000EE00002E5
:100730003107FE24488CC00E0000E70787C7FF8002
:100740003100003C78C8C01B0001C381FF000000DD
:100750003F00001C707980310000000000000000A4
:1007600060000000000180618000000000000003C4
:10077000C00000000001F8000000000000000000C0
:10078000000000000000E000000000000000000089
:100790000000000000000000000000000000000059
:1007A0000000000000000000000000000000000049
:1007B0000000000000000000000000000000000039
:1007C00000000000000000000006819001000064AD
:1007D00000F780900100006400DC8090010000645C
:1007E00000DC80A00000006400F780A0000000642E
:1007F000000681A000000064004A81A0000000649F
:10080000000681A00000006400F780A000000064E2
:1008100000DC80900100006400F780A0000000640C
:10082000000681A000000064004A81A0000000646E
:10083000004A819001000064005D81A00000006416
:10084000004A81A000000064002681A0000000642E
:10085000000681A000000064002681A00000006462
:10086000002681A000000064002681900100006441
:10087000004A81A000000064002681A000000064FE
:10088000000681A00000006400F780A00000006462
:1008900000018000000000003E5B4F5B3E3E6B4F5E
:1008A0006B3E1C3E7C3E1C183C7E3C181C577D5702
:1008B0001C1C5E7F5E1C00183C1800FFE7C3E7FFAE
:1008C0000018241800FFE7DBE7FF30483A060E2641
:1008D00029792926407F050507407F05253F5A3C99
:1008E000E73C5A7F3E1C1C08081C1C3E7F14227FDC
:1008F00022145F5F005F5F06097F017F00668995B4
:100900006A606060606094A2FFA29408047E04089C
:1009100010207E201008082A1C08081C2A08081E1F
:10092000101010100C1E0C1E0C30383E3830060E05
:100930003E0E06000000000000005F0000000700FF
:100940000700147F147F14242A7F2A1223130864BB
:100950006236495620500008070300001C2241005F
:100960000041221C002A1C7F1C2A08083E0808009F
:10097000807030000808080808000060600020103F
:100980000804023E5149453E00427F4000724949F9
:1009900049462141494D331814127F1027454545DA
:1009A000393C4A49493141211109073649494936FB
:1009B000464949291E000014000000403400000090
:1009C00008142241141414141400412214080201C2
:1009D0005909063E415D594E7C1211127C7F4949EE
:1009E00049363E414141227F4141413E7F4949498B
:1009F000417F090909013E414151737F0808087F81
:100A000000417F41002040413F017F081422417F87
:100A1000404040407F021C027F7F0408107F3E411F
:100A200041413E7F090909063E4151215E7F091976
:100A30002946264949493203017F01033F4040408E
:100A40003F1F2040201F3F4038403F63140814637D
:100A500003047804036159494D43007F4141410239
:100A600004081020004141417F040201020440407B
:100A7000404040000307080020545478407F284439
:100A800044383844444428384444287F3854545423
:100A90001800087E090218A4A49C787F0804047832
:100AA00000447D40002040403D007F10284400006D
:100AB000417F40007C047804787C08040478384442
:100AC000444438FC1824241818242418FC7C0804F6
:100AD0000408485454542404043F44243C40402017
:100AE0007C1C2040201C3C4030403C4428102844C2
:100AF0004C9090907C4464544C4400083641000073
:100B000000770000004136080002010204023C2682
:100B100023263C1EA1A161123A4040207A38545449
:100B200055592155557941215454784121555478CE
:100B30004020545579400C1E527212395555555962
:100B4000395454545939555454580000457C410087
:100B500002457D420001457C40F0292429F0F0281F
:100B60002528F07C545545002054547C547C0A09B7
:100B70007F4932494949323248484832324A484826
:100B8000303A4141217A3A42402078009DA0A07D30
:100B900039444444393D4040403D3C24FF242448EE
:100BA0007E4943662B2FFC2F2BFF0929F620C08896
:100BB0007E090320545479410000447D4130484867
:100BC0004A32384040227A007A0A0A727D0D193181
:100BD0007D2629292F28262929292630484D4020DD
:100BE000380808080808080808382F10C8ACBA2FB9
:100BF000102834FA00007B000008142A1422221462
:100C00002A14089500220095AA005500AAAA55AA00
:100C100055AA000000FF00101010FF00141414FF6C
:100C2000001010FF00FF1010F010F0141414FC005E
:100C30001414F700FF0000FF00FF1414F404FC1468
:100C40001417101F10101F101F1414141F00101061
:100C500010F0000000001F101010101F10101010D6
:100C6000F010000000FF101010101010101010FFF6
:100C700010000000FF140000FF00FF00001F10170D
:100C80000000FC04F414141710171414F404F400F6
:100C900000FF00F714141414141414F700F71414BC
:100CA00014171410101F101F141414F4141010F043
:100CB00010F000001F101F0000001F14000000FCB7
:100CC000140000F010F01010FF10FF141414FF14A3
:100CD0001010101F00000000F010FFFFFFFFFFF0DA
:100CE000F0F0F0F0FFFFFF0000000000FFFF0F0F2B
:100CF0000F0F0F38444438447C2A2A3E147E0202E7
:100D00000606027E027E0263554941633844443C34
:100D100004407E201E2006027E020299A5E7A599C6
:100D20001C2A492A1C4C7201724C304A4D4D3030FD
:100D300048784830BC625A463D3E494949007E01E8
:100D400001017E2A2A2A2A2A44445F444440514A07
:100D5000444040444A51400000FF0103E080FF004E
:100D60000008086B6B083612362436060F090F068A
:100D7000000018180000001010003040FF010100B2
:100D80001F01011E00191D1712003C3C3C3C0000D5
:100D9000000000080B00020202010009040000012B
:100DA00002020000052400100105240101010424B1
:100DB000020605240600010705810310004009040E
:100DC0000100020A000000070502024000000705BA
:100DD00083024000000403090412010002EF020133
:100DE00040412336800001010203014172647569AC
:100DF0006E6F204C4C430041726475696E6F204CDD
:100E0000656F6E6172646F00C91F11241FBECFEF42
:100E1000DAE0DEBFCDBF13E0A0E0B1E0E8EDF1E441
:100E200002C005900D92A431B107D9F727E0A4E1E3
:100E3000B3E001C01D92A33DB207E1F717E0C5E0A2
:100E4000D7E004C02197FE010E94DF20C430D10703
:100E5000C9F70E949F130C94EA200C940000409163
:100E6000490350914A0320914703309148034217A8
:100E70005307B4F49091E8009570E1F39091E80085
:100E800092FD19C08093F1008091490390914A032B
:100E900001968F739927892B19F48EEF8093E800C0
:100EA0008091490390914A03019690934A0380935D
:100EB000490381E0089580E00895DF92EF92FF9268
:100EC0000F931F93CF93DF93D82E8A017B01E40EFB
:100ED000F51EEB01CE15DF0571F0D7FE03C0FE0154
:100EE000849101C088810E942F0721968111F2CF41
:100EF0008FEF9FEF01C0C801DF91CF911F910F913C
:100F0000FF90EF90DF900895615030F02091F10054
:100F1000FC0120830196F8CF289884E68093C507CA
:100F20000895CF92DF92EF92FF920F931F93CF938A
:100F3000DF936C017A018B01C0E0D0E0CE15DF05B4
:100F400089F0D8016D918D01D601ED91FC91019050
:100F5000F081E02DC6010995892B11F47E0102C0B4
:100F60002196ECCFC701DF91CF911F910F91FF9098
:100F7000EF90DF90CF900895CF93DF931F92CDB77E
:100F8000DEB76983DC01ED91FC910280F381E02DF5
:100F900041E050E0BE016F5F7F4F09950F90DF91F8
:100FA000CF91089583E08093E9008091F200882337
:100FB00019F08AE38093E8000895FC018485958503
:100FC00097FD0BC09FB7F89482E08093E900809171
:100FD000F2009FBF90E0019608959FB7F89482E0D9
:100FE0008093E9008091F2009FBF90E00895809186
:100FF0003B03E0913903F0913A03882349F0CF0194
:10100000029690933A0380933903859194910895C1
:10101000CF01029690933A038093390380819181A6
:1010200008958091170308950895089580E090E051
:1010300008950E94E5200F931F93CF93DF931F9293
:10104000CDB7DEB782E0898342E450E063E97DE01A
:1010500080E80E945D070E948B13DC0112960D91BF
:101060001C9113970115110569F0D801ED91FC91C0
:101070000280F381E02DBE016F5F7F4FC8010995AB
:1010800097FF07C089810F90DF91CF911F910F913A
:101090000895F80100851185E5CF0E947A1390E04C
:1010A0000895CF93DF931F92CDB7DEB7FC018485FF
:1010B000958597FD05C02FEF3FEF358724870BC03F
:1010C000CE0101960E945013019719F4898190E096
:1010D00002C08FEF9FEF0F90DF91CF9108950F9394
:1010E0001F93CF93DF931F92CDB7DEB78C01FC0126
:1010F0008485958597FF0EC0CE0101960E945013FE
:10110000019719F4298130E002C02FEF3FEFF80179
:1011100035872487F801848595850F90DF91CF91DD
:101120001F910F910895CF93DF9300D000D0CDB7DA
:10113000DEB7611571058105910579F09B01AC0160
:1011400069833A834B835C830E94582029813A81CA
:101150004B815C810E947C2003C060E070E0CB0189
:101160000F900F900F900F90DF91CF9108951F92E5
:101170000F920FB60F9211248F939F938091E100ED
:101180009091E100937F9093E10083FF0FC0109254
:10119000E90091E09093EB001092EC0092E39093C1
:1011A000ED001092C60798E09093F00082FF20C0F7
:1011B00093E09093E9009091F200992319F09AE35B
:1011C0009093E80090914B03992339F090914B0351
:1011D000915090934B03992389F19091C5079923DE
:1011E00039F09091C50791509093C507992341F12B
:1011F00084FF10C08091E2008E7E81608093E200C7
:101200008091E1008F7E8093E100809115038E7EB6
:10121000806111C080FF16C08091E2008E7E8061E7
:101220008093E2008091E1008E7E8093E1008091C6
:1012300015038E7E81608093150304C05D9ACDCF27
:10124000289AD6CF9F918F910F900FBE0F901F902D
:1012500018951F920F920FB60F921124CF92DF9222
:10126000EF92FF920F931F932F933F934F935F93B0
:101270006F937F938F939F93AF93BF93EF93FF935E
:10128000CF93DF93CDB7DEB76C97DEBFCDBF1092A3
:10129000E9008091E80083FFEDC168E0CE0145964A
:1012A0000E94840782EF8093E8008D8987FF05C044
:1012B0009091E80090FFFCCF03C09EEF9093E80070
:1012C000982F907609F0C6C09E892F89188D9111AC
:1012D0000CC0803829F4809116038093F10002C07D
:1012E0001092F1001092F10048C1422F50E0512BB2
:1012F000913051F4811141C14130510509F03DC196
:10130000809116038D7F0BC0933061F4811135C13C
:101310004130510509F031C18091160382608093FC
:1013200016032BC1953041F48091E80080FFFCCF7B
:1013300020682093E30021C1963009F05FC0EB8C58
:10134000FC8C1092E90010924A031092490312306B
:1013500091F510924803109247030E941B0899E0F0
:10136000BE016F5F7F4FDB01E92F1D92EA95E9F720
:1013700099831A8391E09E8390EA98879AEF9987E0
:101380002091490330914A03275F3F4F3C832B83D1
:101390008D831092E90010924A0310924903F09253
:1013A0004803E092470349E050E080E00E945D0777
:1013B0000E941B08E2C0F0924803E09247030E949B
:1013C0008B13DC011296ED90FC901397E114F1045D
:1013D00009F4C0C0D701ED91FC910480F581E02DA6
:1013E000BE016B5E7F4FC7010995009719F00CF0A5
:1013F000C4C0C7C0F701E084F184E8CF973009F496
:10140000C0C0983021F481E08093F100B6C09930DB
:1014100009F0B3C0837009F0B4C0E9E5F2E081E0FF
:1014200021E036E39081992361F08093E9002093D5
:10143000EB0091919093EC003093ED008F5F87303B
:1014400089F78EE78093EA001092EA008F898093F3
:10145000C60793C08B8D9C8D1092E90010924A03B1
:10146000109249039093480380934703898D81111B
:1014700056C08E899D89913A59F4813209F081C014
:1014800047E050E066E072E080E00E945D0775C0D2
:10149000913209F076C0833289F4888D90E0982FDC
:1014A00088272F89822BA0E0B0E0809302029093DE
:1014B0000302A0930402B09305025FC0803269F476
:1014C0008091E80082FFFCCF67E086E092E00E9416
:1014D00084078BEF8093E80006C0823209F04DC08C
:1014E0008F8980930D0280911403882319F0EEEF09
:1014F000FAE002C0E0E0F8E0809106029091070275
:10150000A0910802B0910902803B9440A105B10569
:1015100009F07BC080910D0280FF93C076C00E94CD
:101520008B13DC0112960D911C9113970115110577
:1015300041F1D801ED91FC910190F081E02DBE01C7
:101540006B5E7F4FC8010995811117C0F8010085B6
:101550001185ECCF113009F44EC0133091F48F890E
:10156000882309F445C0823081F440E860E187EFC8
:101570009DE00E94471F882321F08EEF8093E800B2
:1015800079C081E28093EB0075C0813029F440E896
:101590006BE08BEE9DE0EDCF833099F70E948B13CB
:1015A000DC011296ED90FC9013978E010F5F1F4F98
:1015B0006801E114F10479F0D701ED91FC91068006
:1015C000F781E02DB801C7010995080F111DF7013A
:1015D000E084F184EECFD8011C92F6010190002046
:1015E000E9F73197BF016C197D0940E0C601C1CF11
:1015F00065ED7DE002C069ED7DE06115710509F2E0
:10160000FB01449150E080E840CF0FB6F894A895D4
:1016100080916000886180936000109260000FBE2E
:10162000A895EE3F2AE0F20739F08091FE0A9091EA
:10163000FF0A91838083A1CF1092FF0A1092FE0AC5
:101640009CCFEE3F8AE0F80731F080819181909342
:10165000FF0A8093FE0A87E797E7918380839BE0E8
:1016600088E10FB6F894A895809360000FBE909320
:10167000600083CF6C960FB6F894DEBF0FBECDBF6F
:10168000DF91CF91FF91EF91BF91AF919F918F919A
:101690007F916F915F914F913F912F911F910F918A
:1016A000FF90EF90DF90CF900F900FBE0F901F90A4
:1016B00018953FB7F8948091430390914403A0910B
:1016C0004503B091460326B5A89B05C02F3F19F0EE
:1016D0000196A11DB11D3FBFBA2FA92F982F8827B2
:1016E000820F911DA11DB11DBC01CD0142E0660F0D
:1016F000771F881F991F4A95D1F708958F929F925F
:10170000AF92BF92CF92DF92EF92FF926B017C017A
:101710000E94590B4B015C01C114D104E104F10496
:10172000F1F00E94590BDC01CB0188199909AA0933
:10173000BB09883E9340A105B10570F321E0C21AB0
:10174000D108E108F10888EE880E83E0981EA11CFC
:10175000B11CC114D104E104F10419F7DDCFFF90ED
:10176000EF90DF90CF90BF90AF909F908F900895B3
:101770008F929F92AF92BF92CF92DF92EF92FF92A1
:101780000F931F93CF93DF935C016B017A018091DC
:101790000D02882309F45BC08091C607882309F4F1
:1017A00056C08091150380FF05C08091E0008260E3
:1017B0008093E000E70110E00AEF83E0882E9AE3CF
:1017C000992E2097D9F10E947A1381110AC00150F5
:1017D00009F43DC061E070E080E090E00E947E0B83
:1017E000F0CF282F30E0C217D3070CF48C2F4FB75F
:1017F000F8948092E9009091E80095FF1DC0282F91
:1018000030E0C21BD30BF601982F915020F081914C
:101810008093F100FACFC20ED31E112319F09092DB
:10182000E80009C08091E80085FD06C09092E800BC
:1018300011E0209709F010E04FBFC3CF1111C3CFC3
:101840005D9884E680934B031E141F0444F081E0EE
:1018500090E0F5019383828380E090E001C0C701AE
:10186000DF91CF911F910F91FF90EF90DF90CF907C
:10187000BF90AF909F908F9008951F920F920FB6D8
:101880000F9211242F933F938F939F93AF93BF9306
:101890008091190390911A03A0911B03B0911C032E
:1018A0003091420323E0230F2D3720F40196A11D30
:1018B000B11D05C026E8230F0296A11DB11D20937E
:1018C00042038093190390931A03A0931B03B093D0
:1018D0001C038091430390914403A0914503B09170
:1018E00046030196A11DB11D8093430390934403C9
:1018F000A0934503B0934603BF91AF919F918F9101
:101900003F912F910F900FBE0F901F901895E1E718
:10191000F0E080818D7F80831092910046984798F7
:10192000109218030895CF92DF92EF92FF920F93D7
:101930001F93CF93DF930E94F707811520E892074A
:1019400051F4DF91CF911F910F91FF90EF90DF90B5
:10195000CF900C94870C21E020931803813020E86D
:10196000920751F4809137039091380390933A0392
:10197000809339030E94F70797FD05C02091360335
:10198000222309F440C02091350321113CC021E0FD
:1019900020933C03EC01DF77209769F481E080938A
:1019A0003D0346983FE9C32E3FE0D32EE12CF12CB6
:1019B000CAEFD0E014C08E0120E030E060E472E4B1
:1019C0008FE090E0A90198010E947C2069017A01D2
:1019D00081E0C81AD108E108F10810923D03E091B6
:1019E0009E07F0919F070995811103C081E08093C4
:1019F0003D0380913C03882309F43FC080913D035F
:101A000081113BC003C010923C03C4CF469935C03E
:101A1000479A0E94F707009771F09C01DE010E942F
:101A2000D020DC01CB0129E0B595A7959795879546
:101A30002A95D1F703C08FEF9FEFDC011092900041
:101A40002AE020939100D0929900C0929800809350
:101A50003E0390933F03A0934003B09341038091D2
:101A60007100826080937100DF91CF911F910F917F
:101A7000FF90EF90DF90CF9008954798CACF1F92C4
:101A80000F920FB60F9211242F933F934F935F93B2
:101A90006F937F938F939F93AF93BF93EF93FF9336
:101AA00080913E0390913F03A0914003B091410388
:101AB000892B8A2B8B2B81F180913D0381110BC0E7
:101AC00098B180E4892788B980913C03882319F074
:101AD00088B1805888B980913E0390913F03A091CE
:101AE0004003B0914103181619061A061B06B4F4F8
:101AF00080913E0390913F03A0914003B091410338
:101B00000197A109B10980933E0390933F03A093ED
:101B10004003B093410302C00E94930CFF91EF91E8
:101B2000BF91AF919F918F917F916F915F914F91F5
:101B30003F912F910F900FBE0F901F9018959C0111
:101B4000E1E7F0E090819D7F908381E080933B030B
:101B500030933A03209339033093380320933703AB
:101B60000C94930C2D9A0895BC0180E090E00C94A5
:101B70007E0B8FB18095807F669B88601C9B846004
:101B80000895FC01840F911D18161906E4F5E0383C
:101B9000F105CCF5F7FF02C0E0E0F0E081389105F7
:101BA00014F080E890E0382F3E1BAB0177FF02C0B5
:101BB000495F5F4F83E0559547958A95E1F75695C4
:101BC000542F442757954795E40FF51FE25BFC4FD0
:101BD0006770772781E090E001C0880F6A95EAF787
:101BE000482F222349F0213071F4315020F08081B8
:101BF000842B8193FACF08958095315020F0908105
:101C000098239193FACF089580389105B8F4603401
:101C10007105A0F490E121E061FD24E060FD220F58
:101C200062FD2295687F969FD0011124A80FA25BC8
:101C3000BC4F8C91822B40FF82278C9308952F926A
:101C40003F924F925F926F927F928F929F92AF924C
:101C5000BF92CF92DF92EF92FF920F931F93CF9399
:101C6000DF93CDB7DEB727970FB6F894DEBF0FBE70
:101C7000CDBFFC016A3069F425898189928938E0F9
:101C8000239F800D911D1124928B818B108A1786C2
:101C90009EC06D3009F49BC09F838E833588248954
:101CA000298333893A8361887288E784F08880E8E1
:101CB000E816F104C4F0AE81BF8155962C9155977A
:101CC000422F50E01F968D919C915097B6E02B9F2C
:101CD000800D911D1124EE81FF81908B87872689CD
:101CE00021115FC074C0F0E46F16710424F7C701BE
:101CF00025E0329E800D911D112418161906DCF680
:101D0000432C512CC30138E0339E800D911D1124CA
:101D10001816190684F685E0689F800111240D5677
:101D2000174F20E0F8012490253009F4212C4301BD
:101D300058E020FC02C0398101C03A8131110BC04A
:101D4000F9818A81F81307C026945150840C951CA0
:101D50005111EFCF1DC067018C2D8E198315A0F78F
:101D600054018A2D8819831578F4432FB501C601D3
:101D70002C833B835D830E94040E9FEFA91AB90A4E
:101D80005D813B812C81EDCFAFEFCA1ADA0AE4CF37
:101D90002F5FE40CF51C0F5F1F4F263009F0C2CFF8
:101DA0008ACF6AEF64039001659F300D112420589B
:101DB0003F4F281739075CF4AE81BF81ED91FC914C
:101DC00011970190F081E02D6AE0CD01099581E045
:101DD00090E027960FB6F894DEBF0FBECDBFDF911F
:101DE000CF911F910F91FF90EF90DF90CF90BF9018
:101DF000AF909F908F907F906F905F904F903F90AB
:101E00002F9008959C012450310937FF03C031956C
:101E100021953109283E43E034071CF444E050E0AA
:101E200004C04AE050E028EE33E0BC016C51710977
:101E300077FF03C0719561957109621773071CF4F0
:101E40009B014CE150E0BC016453710977FF03C072
:101E50007195619571096217730714F444E350E0BA
:101E60004817590734F49A012B5F3F4F82179307A5
:101E70007CF08417950734F49A012550310928170E
:101E800039074CF08417950749F082E090E00895F7
:101E90008FEF9FEF089581E090E0089580E090E05B
:101EA0000895EEE4F2E02AE030E068EE73E0A191FC
:101EB000B191AC014A1B5B0B57FF03C05195419593
:101EC00051094617570714F49D01BA0142E0E8355D
:101ED000F40769F72817390744F42B5F3F4F82173F
:101EE0009307A4F48FEF9FEF08958217930744F4AC
:101EF00025503109281739074CF481E090E0089506
:101F00008217930719F480E090E0089582E090E052
:101F10000895EF92FF920F931F93CF93DF931F9239
:101F2000CDB7DEB77C01FC0100811181C801698356
:101F30000E9466206981681719F0C8010E946E200E
:101F4000C7010F90DF91CF911F910F91FF90EF90FC
:101F500008959F92AF92BF92CF92DF92EF92FF923D
:101F60000F931F93CF93DF93DC014115510509F4C3
:101F7000C8C0FA01D490319694914E5F5F4FCD2D39
:101F8000D0E02223E9F0E92FE695E695E6950E2FBD
:101F900010E0E1E0F0E0892F877011F4E0E0F0E07C
:101FA000E00FF11FCE9F8001CF9F100DDE9F100D1F
:101FB0001124209FF001219FF00D11244E0F5F1F6F
:101FC0007D01EC0EFD1E1E141F040CF09AC0A038FB
:101FD000B1050CF096C09B01290F311D1216130696
:101FE0000CF08FC0603471050CF08BC041155105A9
:101FF00009F487C0F62FF7709F2E9B0177FF02C070
:10200000295F3F4F83E0359527958A95E1F7F22FB9
:1020100077FF04C0992011F0FFEFF20FB7FF05C062
:10202000662777276A1B7B0B02C060E070E000E840
:10203000E016F1041CF080E88A1B01C08D2D861B80
:102040002F2F0F2E000C330BFF3F1CF4F22EF094B9
:1020500001C0F12CE1E0192F177009F4E0E096952A
:10206000969596959E0F290F311D2930310514F054
:1020700098E09F1B1F2D1F0F9D0100E81003200DEE
:10208000311D1124260F371FFD9C600D711D112479
:10209000640F751F41E050E0092C02C0440F551F2A
:1020A0000A94E2F79F0F191761F1D901A25BBC4FA7
:1020B000E12CF12CE816F8F4FB01EE0DFF1DE49184
:1020C000E49F5001E59FB00C112417FD03C0EC9173
:1020D000EA29EC93992051F0173044F46D01E0E8BF
:1020E000CE0ED11CF60100810B290083FFEFEF1A01
:1020F000FF0A1196DFCF1F5F6C0F7D1F20583F4FE7
:10210000D2CFDF91CF911F910F91FF90EF90DF9091
:10211000CF90BF90AF909F900895CF93DF9383E1CE
:1021200090E00E946620CCE4D3E0888384E190E0D4
:102130000E9466208983CE01DF91CF9108950F938D
:102140001F93CF93DF9300D0CDB7DEB70CE413E03D
:10215000F801608183E190E09A838983CE01019642
:102160000E94890FF801618184E190E09A8389835C
:10217000CE0101960E94890FC8010F900F90DF9148
:10218000CF911F910F9108952F923F924F925F929E
:102190006F927F928F929F92AF92BF92CF92DF9277
:1021A000EF92FF920F931F93CF93DF93CDB7DEB7DC
:1021B00028970FB6F894DEBF0FBECDBF5A01822E0E
:1021C000912C9C01280D391D121613060CF0C6C067
:1021D000803891050CF0C2C09B01200F311D1216F2
:1021E00013060CF0BBC0603471050CF0B7C0AB0136
:1021F00077FF04C044275527461B570B47705527C8
:102200009B0177FF02C0295F3F4FE3E0359527959B
:10221000EA95E1F777FF08C02150310968E070E0E6
:10222000DB01A41BB50BAD01602F66956695669525
:1022300070E0077011F06F5F7F4FDB01A20FB31FDB
:10224000BA83A98339017694762C662477946794AF
:10225000680E791EE12CF12C00E010E02301B0E8BB
:102260004B0E511C68E070E0DB01A41BB50BBC8376
:10227000AB8369817A812617370709F46FC028304C
:10228000310509F46BC02F3FBFEF3B070CF45BC077
:10229000B201600F711FDB01A25BBC4FBE83AD8337
:1022A000D801A60DB71DA25BBC4F6C0160E070E0C9
:1022B000681579050CF047C0E0E8CE16D10409F4A2
:1022C00042C0D7FC34C02F3FFFEF3F0709F442C0A4
:1022D000FB01EE0DFF1DEA0DFB1DE491042E01C074
:1022E000EE0F0A94EAF73C90E329EC93411551056F
:1022F000F1F027303105D9F0FB01EE0DFF1DEA0D9D
:10230000FB1DE4912E2E312CF1010B8002C0F595BE
:10231000E7950A94E2F7F887EF83ED81FE8130803C
:10232000EF81F885E3291F01ED81FE8120826F5F37
:102330007F4FED81FE813196FE83ED83FFEFCF1A53
:10234000DF0A1196B5CF2F5F3F4F00581F4FE80CA3
:10235000F91C8FCF4115510579F6E9CF28960FB6B4
:10236000F894DEBF0FBECDBFDF91CF911F910F91CB
:10237000FF90EF90DF90CF90BF90AF909F908F90A5
:102380007F906F905F904F903F902F9008958F9225
:102390009F92AF92BF92CF92DF92EF92FF920F93F4
:1023A0001F93CF93DF937C01EB01142FD22E603467
:1023B000710518F4202F0E94C10D4E018D0C911C47
:1023C000B401615071096034710528F4202F412F48
:1023D000C7010E94C10DD7FF02C0C0E0D0E06E016E
:1023E000540181E4881691041CF080E4A82EB12CDD
:1023F000CA14DB044CF4402FB601C7010E94040E3E
:102400008FEFC81AD80AECCFE10EF11C81E0E81A70
:10241000F108CA15DB053CF4402FBE01C7010E943C
:10242000040E2196F6CFDF91CF911F910F91FF906F
:10243000EF90DF90CF90BF90AF909F908F900895D6
:102440008F929F92AF92BF92CF92DF92EF92FF92C4
:102450000F93CF93DF936B01EC014C01840E911C21
:102460005B01A20EB11CC815D905DCF47601D7FEBC
:102470000EC0E12CF12C0BC0E816F90684F4402FB5
:10248000B701CE010E94040E2FEFE21AF20AC50135
:1024900021E4A216B10484F380E490E0EDCF21960C
:1024A000E2CFDF91CF910F91FF90EF90DF90CF902F
:1024B000BF90AF909F908F90089580E0EEE4F3E09E
:1024C00081118FEF002481938193819381930394F1
:1024D000D1F7E0EAF7E0128A118A108A1786089588
:1024E000EEE4F3E0A0E0B8E000800EBC8111012C26
:1024F0001197A0FDFDCF0192B9F70DB408950F9388
:102500001F93CF93DF93809164008E7F809364004C
:1025100080917A00806480937A0080917A0086FDB1
:10252000FCCFC0917800D09179000E94590B8E01A8
:1025300020E030E0980111270027600F711F821FF3
:10254000931F209164002160209364006115710540
:102550008105910531F0DF91CF911F910F910C947E
:102560005D20DF91CF911F910F9108952091AA07CF
:10257000282329F49091A907982381E009F480E0A9
:102580000895009769F0FC0101900020E9F7319768
:10259000AF01481B590BBC0180EA97E00C949107EE
:1025A00080E090E008950C94C1128F929F92AF92B8
:1025B000BF92CF92DF92EF92FF920F931F93CF9330
:1025C000DF93CDB7DEB7A1970FB6F894DEBF0FBE8D
:1025D000CDBF6C01990FEE08FF08F7FE31C0E09106
:1025E000A007F091A1070190F081E02D6DE280EA53
:1025F00097E009958C0122273327A9012C193D0961
:102600004E095F0919A2CE0181967C019AE0892EBC
:10261000912CA12CB12CCA01B901A50194010E94F1
:10262000AE20605DF70162937F0121153105410500
:10263000510589F7CF010E94C112800F911F1DC063
:10264000A701960119A28E010F5D1F4F8AE0C82EC7
:10265000D12CE12CF12CCA01B901A70196010E94ED
:10266000AE20605DF80162938F01211531054105AF
:10267000510589F7CF010E94C112A1960FB6F894B7
:10268000DEBF0FBECDBFDF91CF911F910F91FF90A5
:10269000EF90DF90CF90BF90AF909F908F90089574
:1026A000FC018091C607811103C08FEF9FEF089551
:1026B0009FB7F89482E08093E9002091F20030E027
:1026C0001216130614F421E030E02115310559F0FB
:1026D000289884E68093C5078091F10080838091DB
:1026E000F200882319F09FBFC90108958BE68093FB
:1026F000E800F9CF2FB7F89483E08093E900909138
:10270000E800892F807295FF04C09091F20080E468
:10271000891B2FBF08958091CB0781110DC082E0E6
:102720008093C70784E08093C8071092CA0710926D
:10273000C90781E08093CB0787EC97E00895CF939A
:10274000DF93CDB7DEB72E970FB6F894DEBF0FBE7E
:10275000CDBF789484B5826084BD84B5816084BD2A
:1027600085B5826085BD85B5816085BD80916E002F
:10277000816080936E001092810080918100826060
:10278000809381008091810081608093810080919D
:1027900080008160809380008091910082608093AE
:1027A00091008091910081608093910080919000D0
:1027B0008160809390008091C10084608093C1000B
:1027C0008091C10082608093C1008091C1008160CE
:1027D0008093C1008091C30081608093C300809189
:1027E000C00082608093C0008091C20081608093AD
:1027F000C20080917A00846080937A0080917A0090
:10280000826080937A0080917A00816080937A0060
:1028100080917A00806880937A001092C6071092A7
:102820001603109215038091D70081608093D70022
:1028300080EA8093D80089B5806189BD89B58260BE
:1028400089BD09B400FEFDCF61E070E080E090E05A
:102850000E947E0B8091D8008F7C80618093D8008D
:102860008091E000807F8093E0008091E1008E7E87
:102870008093E1008DE08093E200559A209AEEEF7C
:10288000FFE7859194918B3F9C4D19F481E08093F3
:10289000140381EC80937C0085B1806F85B984B18D
:1028A000877E84B984B1876E84B95E9A5F988AB155
:1028B000806D8AB9769A6E9881B3806F81BB899852
:1028C00080B38D7080BB80E58CBD81E08DBD85E0DF
:1028D00090E00E94B40D5F9A85E090E00E94B40DF4
:1028E0005E985C98E0E1F2E08DE08E0F94919EBDE1
:1028F00000000DB407FEFDCF31968E13F7CF5C9A22
:1029000081E8809364008091650081608093650018
:1029100080E00E9470120E94B90D87FF15C05C987C
:1029200085EA8EBD00000DB407FEFDCF5C9A2E989F
:102930002F982D988091640080628093640081E0DC
:1029400083BF889513BEFCCF02E010E00E94B90D52
:1029500082FF42C02D980E94B90D84788438C9F056
:102960000E94B90D8471843191F50E94B20D88ECFA
:1029700090E00E94B40D2E981A83098360E0CE0186
:1029800001960E94890F84EF91E00E94B40D2E9A67
:1029900019C00E94B20D88EC90E00E94B40D2F98EF
:1029A0001A8309836FEFCE0101960E94890F84EF8D
:1029B00091E00E94B40D2F9A0E94B90D847884385A
:1029C000D9F3CECF0E94B90D84718431D9F388EC4C
:1029D00090E00E94B40DBACF0E94B20D82E090E068
:1029E0000E946620882331F03E9A3F9A81E08093CE
:1029F000170304C0109217033E983F9881E090E0BF
:102A00000E94662082FB112710F981E090E00E946D
:102A1000662081FF44C011112E9881EFE82EFF241B
:102A2000FA940E94B90D86FF04C02E9A2F9A2D9A0F
:102A300036C0112331F034E0E316F10411F42E9A7C
:102A40002F9881E00E94701200E128E540E651E0F5
:102A5000B70184E190E00E94C41080E00E947012EF
:102A60008FE090E00E94B40D4FEFE41AF40A59E1B0
:102A7000E516F104B1F6112311F02F9A2D9880E993
:102A800091E00E94B40D0E94B20DE091A407F09174
:102A9000A5070190F081E02D84EA97E0099582E393
:102AA00090E00E94B40D0E94B90D8111F8CF8FEF14
:102AB0009FEF90935B0780935A070E945D1281E21B
:102AC0008093AB0781E090E090932E0380932D03D9
:102AD000109234031092330389EC97E00E949F0D0B
:102AE00081E190E00E946620182F82E190E00E9430
:102AF00066201D3411F4863521F181E190E09A833E
:102B000089836DE4CE0101960E94890F82E190E0F5
:102B10009A83898366E5CE0101960E94890F83E13D
:102B200090E09A83898360E0CE0101960E94890F2C
:102B300084E190E09A83898360E0CE0101960E944F
:102B4000890F0E948D1002E0202E312C0E945D1210
:102B50008091A9078093AA070E94B90D8093A907C5
:102B600080913303909134038230910509F00FC1B5
:102B70000E94870C80913103909132030197D1F428
:102B800080912F0390913003E2ECF1E024813581B4
:102B90002130310511F48C599F4F389662E0E230B4
:102BA000F607A1F79093300380932F03109232031E
:102BB0001092310384E090E09093B9018093B801C2
:102BC0009093BB018093BA01A4E7B0E0B0931101E8
:102BD000A0931001E4E3F0E0F0931301E0931201FD
:102BE0002CE330E030932601209325018CE190E026
:102BF000909328018093270120E230E030933B013D
:102C000020933A01F0933D01E0933C0148E550E008
:102C10005093500140934F0164E070E07093520173
:102C2000609351015093650140936401F0936701F3
:102C3000E093660130937A012093790190937C01AF
:102C400080937B01B0938F01A0938E0170939101CB
:102C500060939001B093A401A093A3019093A60167
:102C60008093A50180910E0190910F010B9719F4AB
:102C700083E090E08BC119E2E12EF12CF092B007D5
:102C8000E092AF071092B2071092B10785E892E088
:102C90000E94D31280910E0190910F010E94D512D3
:102CA00088E290E09093B0078093AF078FE090E0C8
:102CB0009093B2078093B1078CE892E00E94D31200
:102CC00080910C0190910D010E94D51203E210E059
:102CD0001093B0070093AF0789E190E09093B2079B
:102CE0008093B10783E992E00E94D31280910A0198
:102CF00090910B010E94D512F092B007E092AF07BD
:102D00001093B2070093B10783E093E00E94D312BF
:102D100080912F03909130030E94D5121093B00739
:102D20000093AF078DE290E09093B2078093B107D4
:102D300081E093E00E94D31280914C0390914D0367
:102D40000E94D51285E090E09093B0078093AF0782
:102D500087E390E09093B2078093B1078CE992E00B
:102D60000E94D31201E010E010932E0300932D0374
:102D700088E00E94B612882309F4ABC41093320392
:102D8000009331031093340300933303A2C48530BE
:102D9000910509F087C009E110E01093B007009396
:102DA000AF071092B2071092B10780EB92E00E9439
:102DB000D3128AE090E09093B0078093AF078FE042
:102DC00090E09093B2078093B1078CEB92E00E9461
:102DD000D3121093B0070093AF071093B20700937C
:102DE000B1078EEC92E00E94D3128EE190E09093B6
:102DF000B0078093AF0783E290E09093B20780938F
:102E0000B10780912C03882319F08BED92E002C06A
:102E100086EE92E00E94D31289E190E09093B00791
:102E20008093AF078DE290E09093B2078093B10753
:102E300081E093E00E94D31280914C0390914D0366
:102E40000E94D51285E090E09093B0078093AF0781
:102E500087E390E09093B2078093B1078CE992E00A
:102E60000E94D31288E00E94B612882321F01092AB
:102E700034031092330384E00E94B612882309F4CD
:102E800028C480912C03882339F010922C0389ECFC
:102E900097E00E949F0D1DC481E080932C030E9447
:102EA000870C17C4009709F076C0C12CD12CE12CF7
:102EB000F12C00E010E0F801B3E0F595E795BA9544
:102EC000E1F7EC0DFD1DE753FC4F8491980127704D
:102ED0003327A0E8B0E002C0B595A7952A95E2F7A0
:102EE000E82FF0E0EA23FB23EF2B29F041E0B701C4
:102EF000C8010E94040E0F5F1F4F00381105D9F65C
:102F0000BFEFEB1AFB0AE0E1CE0ED11CF0E4EF16A6
:102F1000F10479F680912C03811108C08091180387
:102F2000811104C089EC97E00E949F0D88E00E9407
:102F3000B612882319F183E090E090930D018093FD
:102F40000C0181E090E090930F0180930E0185E0E9
:102F500090E090930B0180930A011092300310923D
:102F60002F03E0E1F1E010A2178E759621E0E33A1D
:102F7000F207C9F7309234032092330384E00E94B1
:102F8000B612882309F4A5C385E090E0909334033A
:102F9000809333039EC38330910509F09BC08091D9
:102FA0002C03811108C080911803811104C089ECA1
:102FB00097E00E949F0D03E210E01093B00700938A
:102FC000AF071092B2071092B10780EF92E00E9413
:102FD000D3128FE290E09093B0078093AF078AE01E
:102FE00090E09093B2078093B10788EF92E00E943F
:102FF000D3121093B0070093AF0789E190E090934C
:10300000B2078093B10783E093E00E94D3128091CE
:103010002F03909130030E94D51280912F0390913D
:10302000300320914C0330914D03821793071CF11C
:1030300090934D0380934C0381E190E09A838983C0
:103040006DE4CE0101960E94890F82E190E09A839F
:10305000898366E5CE0101960E94890F0E949F1028
:1030600084E190E09093B0078093AF071093B2078C
:103070000093B10792C08EE190E09093B0078093E7
:10308000AF071093B2070093B10781E093E00E946D
:10309000D31280914C0390914D030E94D51285E08C
:1030A00090E09093B0078093AF0787E390E0909310
:1030B000B2078093B1078CE992E00E94D31288E0B6
:1030C0000E94B612882309F404C3109234031092AC
:1030D0003303FFC28430910509F06FC080912C0347
:1030E000811108C080911803811104C089EC97E018
:1030F0000E949F0D85E290E09093B0078093AF0708
:103100001092B2071092B1078AE093E00E94D312A6
:1031100083E290E09093B0078093AF078FE090E058
:103120009093B2078093B10783E093E00E94D3129B
:1031300080912F03909130030E94D51280912F032C
:103140009091300320914C0330914D0382179307E7
:103150003CF190934D0380934C0381E190E09A837E
:1031600089836DE4CE0101960E94890F82E190E08F
:103170009A83898366E5CE0101960E94890F0E9499
:103180009F1084E190E09093B0078093AF0789E1AE
:1031900090E09093B2078093B1078DEF92E077CFE4
:1031A0008EE190E09093B0078093AF0789E190E0C3
:1031B0009093B2078093B10768CF019709F089C255
:1031C00080912C0381111AC080911803811116C0BF
:1031D00080910E0190910F01843091051CF489ECCF
:1031E00097E00AC0863091051CF48FEF92E004C08E
:1031F0000B9724F485E392E00E949F0D80912D03AC
:1032000090912E03019709F07DC010922B0310922C
:103210002A0310922903109228030E947F1267E06C
:1032200070E080E090E00E94930870932703609321
:10323000260367E070E080E090E00E9493087093BE
:10324000250360932403209126033091270326173A
:10325000370779F367E070E080E090E00E94930820
:103260007093230360932203209126033091270358
:103270006217730779F320912403309125036217B5
:10328000730741F360E770E080E090E00E949308EC
:10329000DC01CB010496A11DB11D90932103809305
:1032A000200310921F0310921E030E948D10E2EC67
:1032B000F1E088E090E01582148297838683389647
:1032C00032E0E230F307B9F7E0910E01F0910F011F
:1032D000EE0FFF1FEE0FFF1FEE5DFD4F22813381CA
:1032E000E0E1F1E080E090E041E050E082179307F8
:1032F0002CF45387428701967596F8CF10922E03CF
:1033000010922D038FB7F8944091190350911A032E
:1033100060911B0370911C038FBF8091AC07942FA9
:10332000981B892F9091AD07992329F08093AE07C0
:103330001092AD07D1C19091AB07891748F48F5F08
:10334000891708F0C9C181E083BF889513BEC4C145
:1033500081E08093AD074093AC078091A7079091DF
:10336000A80701969093A8078093A7070E945D1273
:103370000E94B90D85FD04C00E94B90D86FFA5C449
:1033800080912F03909130030196909330038093A6
:103390002F030091BA011091BB01C8010E94020FD6
:1033A0008230910564F5800F911F9093BB0180934B
:1033B000BA010E94B90D86FF97C11092BF01109209
:1033C000BE012091B8013091B90124373105BCF418
:1033D0008091BC019091BD01820F931F9093B90120
:1033E0008093B8018091A7079091A80783709927CF
:1033F000892B29F480911D038F5F80931D0350E179
:10340000452E51E0552E820163E0E62EF12CCC24AE
:10341000C394D12CD8011A968D919C911B97892B1E
:1034200009F07BC10B5E1F4FF1E0083B1F0791F7CE
:103430000E94B90D82FD82C240910801509109019C
:103440004115510509F08AC20E94B90D83FDE6C2FB
:1034500032E2E32E31E0F32E00E111E08824839480
:10346000912CDD24D394D8011A968D919C911B97B1
:10347000892B09F066C30B5E1F4FF5E1EF0EF11CBF
:1034800021E0083B120779F780911D03823010F08C
:1034900010921D03D2011A968D919C911B97892B36
:1034A000C9F01696ED91FC911797EE0FFF1FEE5E97
:1034B000FD4F4081518119965C934E931897129657
:1034C0006D917C9113971C962C911C978D919C91DA
:1034D0000E94A90FB5E14B0E511CE8EB4E16E1E03E
:1034E0005E06C1F6E091BE01F091BF01EE0FFF1F35
:1034F000E45EFD4F408151815093C1014093C00172
:103500006091BA017091BB0120911D038091B801B7
:103510009091B9010E94A90FE12CF12C01E024E067
:1035200044E060E070E0C7010E94C71124E044E07D
:103530006CE370E0C7010E94C711F4E0EF0EF11CCC
:1035400020E8E216F10451F744E0E42EF12C01E00A
:1035500024E044E0B70180E090E00E94C71124E03D
:1035600044E0B7018CE790E00E94C71134E0E30E1D
:10357000F11C4CE3E416F10451F780911E03909185
:103580001F03019759F400E024E048E060E070E098
:1035900080912003909121030E94201232ECE32EAF
:1035A00031E0F32ED7011296CD90DC9013976D90F9
:1035B0007C9001E028E044E1B601C3010E942012A2
:1035C000F70162817381685F7F4F28E047E0808167
:1035D00091810E9420125601F8E0AF0EB11C28E044
:1035E00047E0B501C3010D960E942012D701149641
:1035F0008D919C911597F30137964F01892B09F016
:1036000041C327E046E0B501CF010E94201200E04F
:1036100028E046E0B501C4010E94C711B601615F10
:103620007F4F6034710530F421E042E0C301099618
:103630000E94C10DE0912603F091270383E0EE0F75
:10364000FF1F8A95E1F7EE53FE4F62817381675F3A
:103650007F4F8081918108E028E04DE252E006969C
:103660000E94C410E0912403F091250393E0EE0F33
:10367000FF1F9A95E1F7EE53FE4F62817381695FF8
:103680007F4F8081918128E045E252E006960E94BA
:10369000C410E0912203F091230323E0EE0FFF1FFB
:1036A0002A95E1F7EE53FE4F62817381685F7F4F89
:1036B0008081918128E04DE152E006960E94C4107D
:1036C000B8E0EB0EF11CE2E0EE16E2E0FE0609F0D7
:1036D00069CF80E00E94701280E090E0892B09F4AD
:1036E00035CA0E94000032CA0E94B90D85FF87CEFC
:1036F00081E090E09093BF018093BE018091B8017A
:103700009091B901853091050CF479CE2091BC01DE
:103710003091BD01821B930B61CE8D919C910E94D3
:10372000510F5C01F801828193810E94020F892B65
:1037300009F097C0AB2809F094C0D8015096AD901D
:10374000BC905197B1E0AB16B10499F50E947F127D
:103750006BE070E080E090E00E949308DC01CB0118
:103760000196A11DB11D8130910509F45CC0823024
:10377000910531F4D8011796BC92AE92169771C09C
:103780008330910531F422E030E0F801378326835D
:1037900068C08430910531F4D8011796FC92EE92FE
:1037A00016975FC0059709F05CC0F801118A108A6E
:1037B00058C00E947F126BE070E080E090E00E94B1
:1037C0009308DC01CB010196A11DB11D019729F4DD
:1037D000D8015196DC92CE925097F801A080B1802A
:1037E000E091B801F091B901D80112966D917C91E8
:1037F00013974091BA015091BB01CB01841B950BEB
:1038000095012E1B3F0B37FF03C0319521953109E0
:1038100097FF03C09195819591098217930784F4CE
:10382000AE16BF0624F4F801178216821AC0EA15F4
:10383000FB05BCF4D8011796DC92CE92169711C006
:103840006417750724F4F801F782E6820AC0461768
:1038500057073CF4E2E0F0E0D8011796FC93EE93B2
:103860001697D80116962D913C9117978D919C91A2
:1038700011972115310549F414962D913C91159716
:10388000820F931F8D939C9328C02130310541F402
:10389000F80124813581821B930B918380831DC0A5
:1038A000D80112968D919C9113972330310559F4CC
:1038B00014962D913C911597820F931F13969C930C
:1038C0008E9312970AC02230310539F4F801248111
:1038D0003581821B930B93838283D8018D919C91B8
:1038E0001197049724F4E4E0F0E0ED93FC93D80101
:1038F0008D919C9111978537910524F0E4E7F0E0D4
:10390000ED93FC93D80112968D919C911397049797
:1039100034F4E4E0F0E01396FC93EE931297D801B0
:1039200012968D919C911397C5970CF47BCDE4E38F
:10393000F0E01396FC93EE93129774CD80910801FA
:1039400090910901892B09F077CD80910A0190911E
:103950000B01181619060CF44AC26ECD80910601AF
:10396000909107012091000130910101009739F4F5
:103970008091040190910501280F391F09C0813001
:10398000910559F48091040190910501281B390B90
:1039900030930101209300011EC08330910559F43A
:1039A0002091020130910301809104019091050161
:1039B000820F931F0CC0029771F4809102019091C5
:1039C00003012091040130910501821B930B909318
:1039D0000301809302014130510559F460910201C5
:1039E0007091030141E080910001909101010E94DA
:1039F000040E80910001909101010497893791058F
:103A000040F480910201909103010497C99708F452
:103A10001BCD109209011092080116CD6090B801DB
:103A20007090B9018090BA019090BB01209126035B
:103A3000309127033C832B83A0901E03B0901F037B
:103A400040912403509125035E834D8360912A03A6
:103A500070912B03E0900A01F0900B0180912203FA
:103A60009091230398878F83009128031091290355
:103A7000A0912F03B0913003E2ECF1E080E090E000
:103A80009301285F3F4F3A872987A401485F5F4F22
:103A90005C874B8740815181228133813E872D870E
:103AA0006A0137E0C30ED11C29853A85C216D306B8
:103AB0006CF5455F5F4F6416750644F54D855E8570
:103AC0004C5E5F4F2B853C8542175307FCF42D85D8
:103AD0003E85245E3F4F82169306C4F421E030E019
:103AE000358324834B815C818417950719F4AA24BC
:103AF000A394B12C4D815E818417950709F49DC173
:103B00002F8138858217930709F4A1C10196389651
:103B10008830910509F0BECFB0933003A0932F03F6
:103B20001093290300932803F0920B01E0920A01FD
:103B300070932B0360932A03B0921F03A0921E037D
:103B400087CC4091B8015091B9016090BA01709052
:103B5000BB018D919C91119712962D913C911397D9
:103B6000A0910001B0910101E0910201F0910301E7
:103B7000A0900801B0900901AB28C9F05D0162E096
:103B8000A60EB11C8A159B0594F45C0176E0A70E85
:103B9000B11CAA15BB055CF4DF0112962A173B077E
:103BA00034F4D9011896EA17FB070CF45EC1D8016A
:103BB0001E96ED91FC911F971E161F0634F4319747
:103BC0001F96FC93EE931E9714C0F8011786168675
:103BD000D701EC91EE2321F0F8019582848209C08F
:103BE000D8015396ED91FC9154971596FC93EE9362
:103BF0001497FA0134968E179F0714F50696481706
:103C00005907F4F4C301089628173907CCF4285F44
:103C10003F4F62167306A4F480910C0190910D0140
:103C2000019790930D0180930C01892B09F018C125
:103C3000E4E0F0E0F0933403E09333030E94870C58
:103C4000D80114968D919C911597181619068CF42D
:103C50008091A7079091A80783709927892B49F431
:103C60001C968D919C911D9701961D969C938E9309
:103C70001C97F8018485958502970CF4FCCB15867A
:103C80001486F9CBD7011696CD90DC90179701E0FA
:103C90002C2D46E0B501CF010E94201200E028E063
:103CA00046E0B501C4010E94C711B1E0CB1AD108AA
:103CB0001C141D0424F4F701D782C682BBCCD701A3
:103CC00017961C921E921697B5CC0E94B90D87FDCF
:103CD00004C00E94B90D84FF92CB00912F03109174
:103CE0003003C80101969093300380932F03809195
:103CF0001E0390911F030197E9F40E94B90D87FFFD
:103D000019C08091BA019091BB01049799F4209158
:103D1000B8013091B9018091200390912103AC0149
:103D20004E5F5F4F421753072CF002972817390751
:103D30000CF045C00091B8011091B901C8010E9472
:103D4000510F823091050CF05ACB800F911F909348
:103D5000B9018093B8010E94B90D87FF13C030925A
:103D6000BF012092BE018091BA019091BB018530C4
:103D700091050CF444CB2091BC013091BD01821B14
:103D8000930B18C00E94B90D84FF39CB83E090E0FB
:103D90009093BF018093BE012091BA013091BB0185
:103DA000243331050CF02BCB8091BC019091BD01E7
:103DB000820F931F9093BB018093BA0113CB309273
:103DC000BF012092BE0180910E0190910F010196DA
:103DD00090930F0180930E010B501E4F10933003F0
:103DE00000932F033092340320923303A3CF019723
:103DF00090930B0180930A0181E090E09093090178
:103E0000809308018091B8019091B9010496909334
:103E10000101809300018091BA019091BB01049649
:103E200090930301809302018091BE019091BF01A4
:103E30009093070180930601FFCA6115710509F08F
:103E40005FCE5FEFE51AF50A61E070E059CE01152B
:103E5000110509F05BCEA851BC4F01E010E056CE31
:103E60003092340320923303EBCE1092090110926A
:103E70000801D80115961C921E921497ECE3F0E00D
:103E80001F96FC93EE931E97D701DC9290CECF92B3
:103E9000DF92EF92FF920F931F93CF93DF931F92C6
:103EA000CDB7DEB7182F062FE42E862F880F8E5F32
:103EB00099830E942F0783E00E942F07F12EC12EC5
:103EC0009981D92E8C2D8F19801798F4F601E7FE71
:103ED00002C0849101C080810E942F07182F80E0CA
:103EE0000E942F078123FFEFCF1ADF0A8111EACF4B
:103EF00001C081E00F90DF91CF911F910F91FF9052
:103F0000EF90DF90CF9008950F931F93CF93DF939F
:103F10008C0181E090E00E94662080FF32C08AE040
:103F200090E00E9466209FEF980F9E3F50F522E39D
:103F300030E0D80150963C932E931F9728E330E051
:103F400052963C932E935197CBE0D0E0D801ED915F
:103F5000FC910190F081E02D682FC8010995CE01F8
:103F60000E9466202196C131D10581F780E00E9430
:103F7000701288EE93E0DF91CF911F910F910C9416
:103F8000B40DDF91CF911F910F91089504970C9478
:103F9000841FEEE4F7E01382128288EE93E0A0E043
:103FA000B0E084839583A683B78383E692E0918310
:103FB00080838FEF9FEF95878487E0EAF7E0138295
:103FC00012821186128680E18387108617821586F9
:103FD00085E792E09183808383E892E095838483F0
:103FE000108A1786128A118A81E0838B148A858B46
:103FF000168A81E198E090939F0780939E0780E066
:1040000090E89093C4078093C30746983E9A4798D8
:104010003F9A08958F929F92AF92BF92CF92DF9274
:10402000EF92FF92CF93DF93EC01688179818A81CF
:104030009B81611571058105910521F464E279ED9B
:104040008BE597E02DE133EF41E050E00E947C20CA
:1040500049015A019B01AC01A7EAB1E40E949B20EF
:104060006B017C01ACEEB4EFA50194010E94A92084
:10407000DC01CB018C0D9D1DAE1DBF1DB7FF03C024
:104080000197A109B04888839983AA83BB83BC01A7
:10409000CD019F77DF91CF91FF90EF90DF90CF9090
:1040A000BF90AF909F908F9008950E940A2008952E
:1040B0008EE092E00E940A20089560930E027093B1
:1040C0000F0280931002909311020895F999FECF88
:1040D00092BD81BDF89A992780B50895262FF99948
:1040E000FECF1FBA92BD81BD20BD0FB6F894FA9ADB
:1040F000F99A0FBE01960895052E97FB1EF40094C1
:104100000E94932057FD07D00E94AE2007FC03D0E9
:104110004EF40C94932050954095309521953F4F47
:104120004F4F5F4F089590958095709561957F4FA3
:104130008F4F9F4F08950E94D020A59F900DB49F50
:10414000900DA49F800D911D11240895B7FF0C942C
:104150009B200E949B20821B930B0895A1E21A2EA4
:10416000AA1BBB1BFD010DC0AA1FBB1FEE1FFF1F1B
:10417000A217B307E407F50720F0A21BB30BE40B6B
:10418000F50B661F771F881F991F1A9469F76095B2
:104190007095809590959B01AC01BD01CF0108956C
:1041A000A29FB001B39FC001A39F700D811D112478
:1041B000911DB29F700D811D1124911D0895EE0F68
:1041C000FF1F0590F491E02D099481E090E0F894B0
:0841D0000C94EA20F894FFCFE3
:1041D80000000000040000000000050003000500C6
:1041E80074003400010000003C01010000000000E0
:1041F80000000001003C001C00010001002A010031
:10420800000000000001000001002000340001004F
:104218000200180100000000000001000001005821
:104228000004000100030006010000000000000077
:104238000000010058003400020000003C010000AA
:1042480000000000000000020020001C0002000026
:10425800003C0100000000000000000002007400A3
:104268000400030000003C01000000000000000002
:1042780000030074001C00030000003C0100000063
:104288000000000000000300040004000200000019
:104298004E010C000C000000080028000C00000073
:1042A800080044000C000000080060000C0000003A
:1042B80008000C002400000008002800240000006A
:1042C80008004400240000000800600024000000EA
:1042D8000800FFFFFFFF00E10000000000000100F0
:1042E80000003C012A0118010601AC004E01F4004F
:1042F800E200D000BE00010001000200020003003D
:104308000200040003000500040006000400070082
:10431800040008000400090005000A000600040063
:1043280020003C005800740000C18081000000009B
:10433800000000BC07B80B4D08D207DD0751086F15
:1043480008000000001F0E910716081508841FFCBE
:10435800FF0000C61F4C6576656C20004C697665C9
:1043680073200042756C6C6574732000507265731D
:1043780073204120746F20436F6E74696E756500F9
:104388004D6F76652041726F756E64004F70656E73
:1043980020446F6F727320776974682041005368F6
:1043A8006F6F742077697468204200536F756E646C
:1043B8003A204F464600536F756E643A204F4E00C0
:1043C800596F752057696E0059617920004E6577DD
:1043D80020486953636F72652000596F75204C6FD0
:0443E80073650000F9
:00000001FF
